{
	"contracts/SampleTokenSale.sol": {
		"TokenSale": {
			"abi": [
				{
					"inputs": [
						{
							"internalType": "address",
							"name": "_token",
							"type": "address"
						}
					],
					"stateMutability": "nonpayable",
					"type": "constructor"
				},
				{
					"inputs": [],
					"name": "purchaseCoffee",
					"outputs": [],
					"stateMutability": "payable",
					"type": "function"
				},
				{
					"inputs": [],
					"name": "token",
					"outputs": [
						{
							"internalType": "contract ERC20",
							"name": "",
							"type": "address"
						}
					],
					"stateMutability": "view",
					"type": "function"
				},
				{
					"inputs": [],
					"name": "tokenOwner",
					"outputs": [
						{
							"internalType": "address",
							"name": "",
							"type": "address"
						}
					],
					"stateMutability": "view",
					"type": "function"
				}
			],
			"devdoc": {
				"kind": "dev",
				"methods": {},
				"version": 1
			},
			"evm": {
				"assembly": "    /* \"contracts/SampleTokenSale.sol\":263:921  contract TokenSale {... */\n  mstore(0x40, 0x80)\n    /* \"contracts/SampleTokenSale.sol\":312:319  1 ether */\n  0x0de0b6b3a7640000\n    /* \"contracts/SampleTokenSale.sol\":289:319  uint tokenPriceInWie = 1 ether */\n  0x00\n  sstore\n    /* \"contracts/SampleTokenSale.sol\":382:480  constructor(address _token){... */\n  callvalue\n  dup1\n  iszero\n  tag_1\n  jumpi\n  0x00\n  dup1\n  revert\ntag_1:\n  pop\n  mload(0x40)\n  sub(codesize, bytecodeSize)\n  dup1\n  bytecodeSize\n  dup4\n  codecopy\n  dup2\n  dup2\n  add\n  0x40\n  mstore\n  dup2\n  add\n  swap1\n  tag_2\n  swap2\n  swap1\n  tag_3\n  jump\t// in\ntag_2:\n    /* \"contracts/SampleTokenSale.sol\":432:442  msg.sender */\n  caller\n    /* \"contracts/SampleTokenSale.sol\":419:429  tokenOwner */\n  0x02\n  0x00\n    /* \"contracts/SampleTokenSale.sol\":419:442  tokenOwner = msg.sender */\n  0x0100\n  exp\n  dup2\n  sload\n  dup2\n  0xffffffffffffffffffffffffffffffffffffffff\n  mul\n  not\n  and\n  swap1\n  dup4\n  0xffffffffffffffffffffffffffffffffffffffff\n  and\n  mul\n  or\n  swap1\n  sstore\n  pop\n    /* \"contracts/SampleTokenSale.sol\":466:472  _token */\n  dup1\n    /* \"contracts/SampleTokenSale.sol\":452:457  token */\n  0x01\n  0x00\n    /* \"contracts/SampleTokenSale.sol\":452:473  token = ERC20(_token) */\n  0x0100\n  exp\n  dup2\n  sload\n  dup2\n  0xffffffffffffffffffffffffffffffffffffffff\n  mul\n  not\n  and\n  swap1\n  dup4\n  0xffffffffffffffffffffffffffffffffffffffff\n  and\n  mul\n  or\n  swap1\n  sstore\n  pop\n    /* \"contracts/SampleTokenSale.sol\":382:480  constructor(address _token){... */\n  pop\n    /* \"contracts/SampleTokenSale.sol\":263:921  contract TokenSale {... */\n  jump(tag_6)\n    /* \"#utility.yul\":88:205   */\ntag_8:\n    /* \"#utility.yul\":197:198   */\n  0x00\n    /* \"#utility.yul\":194:195   */\n  dup1\n    /* \"#utility.yul\":187:199   */\n  revert\n    /* \"#utility.yul\":334:460   */\ntag_10:\n    /* \"#utility.yul\":371:378   */\n  0x00\n    /* \"#utility.yul\":411:453   */\n  0xffffffffffffffffffffffffffffffffffffffff\n    /* \"#utility.yul\":404:409   */\n  dup3\n    /* \"#utility.yul\":400:454   */\n  and\n    /* \"#utility.yul\":389:454   */\n  swap1\n  pop\n    /* \"#utility.yul\":334:460   */\n  swap2\n  swap1\n  pop\n  jump\t// out\n    /* \"#utility.yul\":466:562   */\ntag_11:\n    /* \"#utility.yul\":503:510   */\n  0x00\n    /* \"#utility.yul\":532:556   */\n  tag_20\n    /* \"#utility.yul\":550:555   */\n  dup3\n    /* \"#utility.yul\":532:556   */\n  tag_10\n  jump\t// in\ntag_20:\n    /* \"#utility.yul\":521:556   */\n  swap1\n  pop\n    /* \"#utility.yul\":466:562   */\n  swap2\n  swap1\n  pop\n  jump\t// out\n    /* \"#utility.yul\":568:690   */\ntag_12:\n    /* \"#utility.yul\":641:665   */\n  tag_22\n    /* \"#utility.yul\":659:664   */\n  dup2\n    /* \"#utility.yul\":641:665   */\n  tag_11\n  jump\t// in\ntag_22:\n    /* \"#utility.yul\":634:639   */\n  dup2\n    /* \"#utility.yul\":631:666   */\n  eq\n    /* \"#utility.yul\":621:684   */\n  tag_23\n  jumpi\n    /* \"#utility.yul\":680:681   */\n  0x00\n    /* \"#utility.yul\":677:678   */\n  dup1\n    /* \"#utility.yul\":670:682   */\n  revert\n    /* \"#utility.yul\":621:684   */\ntag_23:\n    /* \"#utility.yul\":568:690   */\n  pop\n  jump\t// out\n    /* \"#utility.yul\":696:839   */\ntag_13:\n    /* \"#utility.yul\":753:758   */\n  0x00\n    /* \"#utility.yul\":784:790   */\n  dup2\n    /* \"#utility.yul\":778:791   */\n  mload\n    /* \"#utility.yul\":769:791   */\n  swap1\n  pop\n    /* \"#utility.yul\":800:833   */\n  tag_25\n    /* \"#utility.yul\":827:832   */\n  dup2\n    /* \"#utility.yul\":800:833   */\n  tag_12\n  jump\t// in\ntag_25:\n    /* \"#utility.yul\":696:839   */\n  swap3\n  swap2\n  pop\n  pop\n  jump\t// out\n    /* \"#utility.yul\":845:1196   */\ntag_3:\n    /* \"#utility.yul\":915:921   */\n  0x00\n    /* \"#utility.yul\":964:966   */\n  0x20\n    /* \"#utility.yul\":952:961   */\n  dup3\n    /* \"#utility.yul\":943:950   */\n  dup5\n    /* \"#utility.yul\":939:962   */\n  sub\n    /* \"#utility.yul\":935:967   */\n  slt\n    /* \"#utility.yul\":932:1051   */\n  iszero\n  tag_27\n  jumpi\n    /* \"#utility.yul\":970:1049   */\n  tag_28\n  tag_8\n  jump\t// in\ntag_28:\n    /* \"#utility.yul\":932:1051   */\ntag_27:\n    /* \"#utility.yul\":1090:1091   */\n  0x00\n    /* \"#utility.yul\":1115:1179   */\n  tag_29\n    /* \"#utility.yul\":1171:1178   */\n  dup5\n    /* \"#utility.yul\":1162:1168   */\n  dup3\n    /* \"#utility.yul\":1151:1160   */\n  dup6\n    /* \"#utility.yul\":1147:1169   */\n  add\n    /* \"#utility.yul\":1115:1179   */\n  tag_13\n  jump\t// in\ntag_29:\n    /* \"#utility.yul\":1105:1179   */\n  swap2\n  pop\n    /* \"#utility.yul\":1061:1189   */\n  pop\n    /* \"#utility.yul\":845:1196   */\n  swap3\n  swap2\n  pop\n  pop\n  jump\t// out\n    /* \"contracts/SampleTokenSale.sol\":263:921  contract TokenSale {... */\ntag_6:\n  dataSize(sub_0)\n  dup1\n  dataOffset(sub_0)\n  0x00\n  codecopy\n  0x00\n  return\nstop\n\nsub_0: assembly {\n        /* \"contracts/SampleTokenSale.sol\":263:921  contract TokenSale {... */\n      mstore(0x40, 0x80)\n      jumpi(tag_1, lt(calldatasize, 0x04))\n      shr(0xe0, calldataload(0x00))\n      dup1\n      0xa3e67610\n      eq\n      tag_2\n      jumpi\n      dup1\n      0xdfa5a25d\n      eq\n      tag_3\n      jumpi\n      dup1\n      0xfc0c546a\n      eq\n      tag_4\n      jumpi\n    tag_1:\n      0x00\n      dup1\n      revert\n        /* \"contracts/SampleTokenSale.sol\":350:375  address public tokenOwner */\n    tag_2:\n      callvalue\n      dup1\n      iszero\n      tag_5\n      jumpi\n      0x00\n      dup1\n      revert\n    tag_5:\n      pop\n      tag_6\n      tag_7\n      jump\t// in\n    tag_6:\n      mload(0x40)\n      tag_8\n      swap2\n      swap1\n      tag_9\n      jump\t// in\n    tag_8:\n      mload(0x40)\n      dup1\n      swap2\n      sub\n      swap1\n      return\n        /* \"contracts/SampleTokenSale.sol\":486:919  function purchaseCoffee() public payable {... */\n    tag_3:\n      tag_10\n      tag_11\n      jump\t// in\n    tag_10:\n      stop\n        /* \"contracts/SampleTokenSale.sol\":326:344  ERC20 public token */\n    tag_4:\n      callvalue\n      dup1\n      iszero\n      tag_12\n      jumpi\n      0x00\n      dup1\n      revert\n    tag_12:\n      pop\n      tag_13\n      tag_14\n      jump\t// in\n    tag_13:\n      mload(0x40)\n      tag_15\n      swap2\n      swap1\n      tag_16\n      jump\t// in\n    tag_15:\n      mload(0x40)\n      dup1\n      swap2\n      sub\n      swap1\n      return\n        /* \"contracts/SampleTokenSale.sol\":350:375  address public tokenOwner */\n    tag_7:\n      0x02\n      0x00\n      swap1\n      sload\n      swap1\n      0x0100\n      exp\n      swap1\n      div\n      0xffffffffffffffffffffffffffffffffffffffff\n      and\n      dup2\n      jump\t// out\n        /* \"contracts/SampleTokenSale.sol\":486:919  function purchaseCoffee() public payable {... */\n    tag_11:\n        /* \"contracts/SampleTokenSale.sol\":558:573  tokenPriceInWie */\n      sload(0x00)\n        /* \"contracts/SampleTokenSale.sol\":545:554  msg.value */\n      callvalue\n        /* \"contracts/SampleTokenSale.sol\":545:573  msg.value >= tokenPriceInWie */\n      lt\n      iszero\n        /* \"contracts/SampleTokenSale.sol\":537:599  require(msg.value >= tokenPriceInWie, \"Not enough money send\") */\n      tag_18\n      jumpi\n      mload(0x40)\n      0x08c379a000000000000000000000000000000000000000000000000000000000\n      dup2\n      mstore\n      0x04\n      add\n      tag_19\n      swap1\n      tag_20\n      jump\t// in\n    tag_19:\n      mload(0x40)\n      dup1\n      swap2\n      sub\n      swap1\n      revert\n    tag_18:\n        /* \"contracts/SampleTokenSale.sol\":609:630  uint tokensToTransfer */\n      0x00\n        /* \"contracts/SampleTokenSale.sol\":645:660  tokenPriceInWie */\n      dup1\n      sload\n        /* \"contracts/SampleTokenSale.sol\":633:642  msg.value */\n      callvalue\n        /* \"contracts/SampleTokenSale.sol\":633:660  msg.value / tokenPriceInWie */\n      tag_21\n      swap2\n      swap1\n      tag_22\n      jump\t// in\n    tag_21:\n        /* \"contracts/SampleTokenSale.sol\":609:660  uint tokensToTransfer = msg.value / tokenPriceInWie */\n      swap1\n      pop\n        /* \"contracts/SampleTokenSale.sol\":670:684  uint remainder */\n      0x00\n        /* \"contracts/SampleTokenSale.sol\":718:733  tokenPriceInWie */\n      dup1\n      sload\n        /* \"contracts/SampleTokenSale.sol\":699:715  tokensToTransfer */\n      dup3\n        /* \"contracts/SampleTokenSale.sol\":699:733  tokensToTransfer * tokenPriceInWie */\n      tag_23\n      swap2\n      swap1\n      tag_24\n      jump\t// in\n    tag_23:\n        /* \"contracts/SampleTokenSale.sol\":687:696  msg.value */\n      callvalue\n        /* \"contracts/SampleTokenSale.sol\":687:733  msg.value - tokensToTransfer * tokenPriceInWie */\n      tag_25\n      swap2\n      swap1\n      tag_26\n      jump\t// in\n    tag_25:\n        /* \"contracts/SampleTokenSale.sol\":670:733  uint remainder = msg.value - tokensToTransfer * tokenPriceInWie */\n      swap1\n      pop\n        /* \"contracts/SampleTokenSale.sol\":743:748  token */\n      0x01\n      0x00\n      swap1\n      sload\n      swap1\n      0x0100\n      exp\n      swap1\n      div\n      0xffffffffffffffffffffffffffffffffffffffff\n      and\n        /* \"contracts/SampleTokenSale.sol\":743:761  token.transferFrom */\n      0xffffffffffffffffffffffffffffffffffffffff\n      and\n      0x23b872dd\n        /* \"contracts/SampleTokenSale.sol\":762:772  tokenOwner */\n      0x02\n      0x00\n      swap1\n      sload\n      swap1\n      0x0100\n      exp\n      swap1\n      div\n      0xffffffffffffffffffffffffffffffffffffffff\n      and\n        /* \"contracts/SampleTokenSale.sol\":774:784  msg.sender */\n      caller\n        /* \"contracts/SampleTokenSale.sol\":811:816  token */\n      0x01\n      0x00\n      swap1\n      sload\n      swap1\n      0x0100\n      exp\n      swap1\n      div\n      0xffffffffffffffffffffffffffffffffffffffff\n      and\n        /* \"contracts/SampleTokenSale.sol\":811:825  token.decimals */\n      0xffffffffffffffffffffffffffffffffffffffff\n      and\n      0x313ce567\n        /* \"contracts/SampleTokenSale.sol\":811:827  token.decimals() */\n      mload(0x40)\n      dup2\n      0xffffffff\n      and\n      0xe0\n      shl\n      dup2\n      mstore\n      0x04\n      add\n      0x20\n      mload(0x40)\n      dup1\n      dup4\n      sub\n      dup2\n      0x00\n      dup8\n      gas\n      call\n      iszero\n      dup1\n      iszero\n      tag_28\n      jumpi\n      returndatasize\n      0x00\n      dup1\n      returndatacopy\n      revert(0x00, returndatasize)\n    tag_28:\n      pop\n      pop\n      pop\n      pop\n      mload(0x40)\n      returndatasize\n      not(0x1f)\n      0x1f\n      dup3\n      add\n      and\n      dup3\n      add\n      dup1\n      0x40\n      mstore\n      pop\n      dup2\n      add\n      swap1\n      tag_29\n      swap2\n      swap1\n      tag_30\n      jump\t// in\n    tag_29:\n        /* \"contracts/SampleTokenSale.sol\":805:807  10 */\n      0x0a\n        /* \"contracts/SampleTokenSale.sol\":805:827  10 ** token.decimals() */\n      tag_31\n      swap2\n      swap1\n      tag_32\n      jump\t// in\n    tag_31:\n        /* \"contracts/SampleTokenSale.sol\":786:802  tokensToTransfer */\n      dup7\n        /* \"contracts/SampleTokenSale.sol\":786:827  tokensToTransfer * 10 ** token.decimals() */\n      tag_33\n      swap2\n      swap1\n      tag_24\n      jump\t// in\n    tag_33:\n        /* \"contracts/SampleTokenSale.sol\":743:828  token.transferFrom(tokenOwner, msg.sender, tokensToTransfer * 10 ** token.decimals()) */\n      mload(0x40)\n      dup5\n      0xffffffff\n      and\n      0xe0\n      shl\n      dup2\n      mstore\n      0x04\n      add\n      tag_34\n      swap4\n      swap3\n      swap2\n      swap1\n      tag_35\n      jump\t// in\n    tag_34:\n      0x20\n      mload(0x40)\n      dup1\n      dup4\n      sub\n      dup2\n      0x00\n      dup8\n      gas\n      call\n      iszero\n      dup1\n      iszero\n      tag_37\n      jumpi\n      returndatasize\n      0x00\n      dup1\n      returndatacopy\n      revert(0x00, returndatasize)\n    tag_37:\n      pop\n      pop\n      pop\n      pop\n      mload(0x40)\n      returndatasize\n      not(0x1f)\n      0x1f\n      dup3\n      add\n      and\n      dup3\n      add\n      dup1\n      0x40\n      mstore\n      pop\n      dup2\n      add\n      swap1\n      tag_38\n      swap2\n      swap1\n      tag_39\n      jump\t// in\n    tag_38:\n      pop\n        /* \"contracts/SampleTokenSale.sol\":846:856  msg.sender */\n      caller\n        /* \"contracts/SampleTokenSale.sol\":838:866  payable(msg.sender).transfer */\n      0xffffffffffffffffffffffffffffffffffffffff\n      and\n        /* \"contracts/SampleTokenSale.sol\":838:877  payable(msg.sender).transfer(remainder) */\n      0x08fc\n        /* \"contracts/SampleTokenSale.sol\":867:876  remainder */\n      dup3\n        /* \"contracts/SampleTokenSale.sol\":838:877  payable(msg.sender).transfer(remainder) */\n      swap1\n      dup2\n      iszero\n      mul\n      swap1\n      mload(0x40)\n      0x00\n      mload(0x40)\n      dup1\n      dup4\n      sub\n      dup2\n      dup6\n      dup9\n      dup9\n      call\n      swap4\n      pop\n      pop\n      pop\n      pop\n      iszero\n      dup1\n      iszero\n      tag_41\n      jumpi\n      returndatasize\n      0x00\n      dup1\n      returndatacopy\n      revert(0x00, returndatasize)\n    tag_41:\n      pop\n        /* \"contracts/SampleTokenSale.sol\":527:919  {... */\n      pop\n      pop\n        /* \"contracts/SampleTokenSale.sol\":486:919  function purchaseCoffee() public payable {... */\n      jump\t// out\n        /* \"contracts/SampleTokenSale.sol\":326:344  ERC20 public token */\n    tag_14:\n      0x01\n      0x00\n      swap1\n      sload\n      swap1\n      0x0100\n      exp\n      swap1\n      div\n      0xffffffffffffffffffffffffffffffffffffffff\n      and\n      dup2\n      jump\t// out\n        /* \"#utility.yul\":7:133   */\n    tag_42:\n        /* \"#utility.yul\":44:51   */\n      0x00\n        /* \"#utility.yul\":84:126   */\n      0xffffffffffffffffffffffffffffffffffffffff\n        /* \"#utility.yul\":77:82   */\n      dup3\n        /* \"#utility.yul\":73:127   */\n      and\n        /* \"#utility.yul\":62:127   */\n      swap1\n      pop\n        /* \"#utility.yul\":7:133   */\n      swap2\n      swap1\n      pop\n      jump\t// out\n        /* \"#utility.yul\":139:235   */\n    tag_43:\n        /* \"#utility.yul\":176:183   */\n      0x00\n        /* \"#utility.yul\":205:229   */\n      tag_72\n        /* \"#utility.yul\":223:228   */\n      dup3\n        /* \"#utility.yul\":205:229   */\n      tag_42\n      jump\t// in\n    tag_72:\n        /* \"#utility.yul\":194:229   */\n      swap1\n      pop\n        /* \"#utility.yul\":139:235   */\n      swap2\n      swap1\n      pop\n      jump\t// out\n        /* \"#utility.yul\":241:359   */\n    tag_44:\n        /* \"#utility.yul\":328:352   */\n      tag_74\n        /* \"#utility.yul\":346:351   */\n      dup2\n        /* \"#utility.yul\":328:352   */\n      tag_43\n      jump\t// in\n    tag_74:\n        /* \"#utility.yul\":323:326   */\n      dup3\n        /* \"#utility.yul\":316:353   */\n      mstore\n        /* \"#utility.yul\":241:359   */\n      pop\n      pop\n      jump\t// out\n        /* \"#utility.yul\":365:587   */\n    tag_9:\n        /* \"#utility.yul\":458:462   */\n      0x00\n        /* \"#utility.yul\":496:498   */\n      0x20\n        /* \"#utility.yul\":485:494   */\n      dup3\n        /* \"#utility.yul\":481:499   */\n      add\n        /* \"#utility.yul\":473:499   */\n      swap1\n      pop\n        /* \"#utility.yul\":509:580   */\n      tag_76\n        /* \"#utility.yul\":577:578   */\n      0x00\n        /* \"#utility.yul\":566:575   */\n      dup4\n        /* \"#utility.yul\":562:579   */\n      add\n        /* \"#utility.yul\":553:559   */\n      dup5\n        /* \"#utility.yul\":509:580   */\n      tag_44\n      jump\t// in\n    tag_76:\n        /* \"#utility.yul\":365:587   */\n      swap3\n      swap2\n      pop\n      pop\n      jump\t// out\n        /* \"#utility.yul\":593:653   */\n    tag_45:\n        /* \"#utility.yul\":621:624   */\n      0x00\n        /* \"#utility.yul\":642:647   */\n      dup2\n        /* \"#utility.yul\":635:647   */\n      swap1\n      pop\n        /* \"#utility.yul\":593:653   */\n      swap2\n      swap1\n      pop\n      jump\t// out\n        /* \"#utility.yul\":659:801   */\n    tag_46:\n        /* \"#utility.yul\":709:718   */\n      0x00\n        /* \"#utility.yul\":742:795   */\n      tag_79\n        /* \"#utility.yul\":760:794   */\n      tag_80\n        /* \"#utility.yul\":769:793   */\n      tag_81\n        /* \"#utility.yul\":787:792   */\n      dup5\n        /* \"#utility.yul\":769:793   */\n      tag_42\n      jump\t// in\n    tag_81:\n        /* \"#utility.yul\":760:794   */\n      tag_45\n      jump\t// in\n    tag_80:\n        /* \"#utility.yul\":742:795   */\n      tag_42\n      jump\t// in\n    tag_79:\n        /* \"#utility.yul\":729:795   */\n      swap1\n      pop\n        /* \"#utility.yul\":659:801   */\n      swap2\n      swap1\n      pop\n      jump\t// out\n        /* \"#utility.yul\":807:933   */\n    tag_47:\n        /* \"#utility.yul\":857:866   */\n      0x00\n        /* \"#utility.yul\":890:927   */\n      tag_83\n        /* \"#utility.yul\":921:926   */\n      dup3\n        /* \"#utility.yul\":890:927   */\n      tag_46\n      jump\t// in\n    tag_83:\n        /* \"#utility.yul\":877:927   */\n      swap1\n      pop\n        /* \"#utility.yul\":807:933   */\n      swap2\n      swap1\n      pop\n      jump\t// out\n        /* \"#utility.yul\":939:1077   */\n    tag_48:\n        /* \"#utility.yul\":1001:1010   */\n      0x00\n        /* \"#utility.yul\":1034:1071   */\n      tag_85\n        /* \"#utility.yul\":1065:1070   */\n      dup3\n        /* \"#utility.yul\":1034:1071   */\n      tag_47\n      jump\t// in\n    tag_85:\n        /* \"#utility.yul\":1021:1071   */\n      swap1\n      pop\n        /* \"#utility.yul\":939:1077   */\n      swap2\n      swap1\n      pop\n      jump\t// out\n        /* \"#utility.yul\":1083:1238   */\n    tag_49:\n        /* \"#utility.yul\":1182:1231   */\n      tag_87\n        /* \"#utility.yul\":1225:1230   */\n      dup2\n        /* \"#utility.yul\":1182:1231   */\n      tag_48\n      jump\t// in\n    tag_87:\n        /* \"#utility.yul\":1177:1180   */\n      dup3\n        /* \"#utility.yul\":1170:1232   */\n      mstore\n        /* \"#utility.yul\":1083:1238   */\n      pop\n      pop\n      jump\t// out\n        /* \"#utility.yul\":1244:1490   */\n    tag_16:\n        /* \"#utility.yul\":1349:1353   */\n      0x00\n        /* \"#utility.yul\":1387:1389   */\n      0x20\n        /* \"#utility.yul\":1376:1385   */\n      dup3\n        /* \"#utility.yul\":1372:1390   */\n      add\n        /* \"#utility.yul\":1364:1390   */\n      swap1\n      pop\n        /* \"#utility.yul\":1400:1483   */\n      tag_89\n        /* \"#utility.yul\":1480:1481   */\n      0x00\n        /* \"#utility.yul\":1469:1478   */\n      dup4\n        /* \"#utility.yul\":1465:1482   */\n      add\n        /* \"#utility.yul\":1456:1462   */\n      dup5\n        /* \"#utility.yul\":1400:1483   */\n      tag_49\n      jump\t// in\n    tag_89:\n        /* \"#utility.yul\":1244:1490   */\n      swap3\n      swap2\n      pop\n      pop\n      jump\t// out\n        /* \"#utility.yul\":1496:1665   */\n    tag_50:\n        /* \"#utility.yul\":1580:1591   */\n      0x00\n        /* \"#utility.yul\":1614:1620   */\n      dup3\n        /* \"#utility.yul\":1609:1612   */\n      dup3\n        /* \"#utility.yul\":1602:1621   */\n      mstore\n        /* \"#utility.yul\":1654:1658   */\n      0x20\n        /* \"#utility.yul\":1649:1652   */\n      dup3\n        /* \"#utility.yul\":1645:1659   */\n      add\n        /* \"#utility.yul\":1630:1659   */\n      swap1\n      pop\n        /* \"#utility.yul\":1496:1665   */\n      swap3\n      swap2\n      pop\n      pop\n      jump\t// out\n        /* \"#utility.yul\":1671:1842   */\n    tag_51:\n        /* \"#utility.yul\":1811:1834   */\n      0x4e6f7420656e6f756768206d6f6e65792073656e640000000000000000000000\n        /* \"#utility.yul\":1807:1808   */\n      0x00\n        /* \"#utility.yul\":1799:1805   */\n      dup3\n        /* \"#utility.yul\":1795:1809   */\n      add\n        /* \"#utility.yul\":1788:1835   */\n      mstore\n        /* \"#utility.yul\":1671:1842   */\n      pop\n      jump\t// out\n        /* \"#utility.yul\":1848:2214   */\n    tag_52:\n        /* \"#utility.yul\":1990:1993   */\n      0x00\n        /* \"#utility.yul\":2011:2078   */\n      tag_93\n        /* \"#utility.yul\":2075:2077   */\n      0x15\n        /* \"#utility.yul\":2070:2073   */\n      dup4\n        /* \"#utility.yul\":2011:2078   */\n      tag_50\n      jump\t// in\n    tag_93:\n        /* \"#utility.yul\":2004:2078   */\n      swap2\n      pop\n        /* \"#utility.yul\":2087:2180   */\n      tag_94\n        /* \"#utility.yul\":2176:2179   */\n      dup3\n        /* \"#utility.yul\":2087:2180   */\n      tag_51\n      jump\t// in\n    tag_94:\n        /* \"#utility.yul\":2205:2207   */\n      0x20\n        /* \"#utility.yul\":2200:2203   */\n      dup3\n        /* \"#utility.yul\":2196:2208   */\n      add\n        /* \"#utility.yul\":2189:2208   */\n      swap1\n      pop\n        /* \"#utility.yul\":1848:2214   */\n      swap2\n      swap1\n      pop\n      jump\t// out\n        /* \"#utility.yul\":2220:2639   */\n    tag_20:\n        /* \"#utility.yul\":2386:2390   */\n      0x00\n        /* \"#utility.yul\":2424:2426   */\n      0x20\n        /* \"#utility.yul\":2413:2422   */\n      dup3\n        /* \"#utility.yul\":2409:2427   */\n      add\n        /* \"#utility.yul\":2401:2427   */\n      swap1\n      pop\n        /* \"#utility.yul\":2473:2482   */\n      dup2\n        /* \"#utility.yul\":2467:2471   */\n      dup2\n        /* \"#utility.yul\":2463:2483   */\n      sub\n        /* \"#utility.yul\":2459:2460   */\n      0x00\n        /* \"#utility.yul\":2448:2457   */\n      dup4\n        /* \"#utility.yul\":2444:2461   */\n      add\n        /* \"#utility.yul\":2437:2484   */\n      mstore\n        /* \"#utility.yul\":2501:2632   */\n      tag_96\n        /* \"#utility.yul\":2627:2631   */\n      dup2\n        /* \"#utility.yul\":2501:2632   */\n      tag_52\n      jump\t// in\n    tag_96:\n        /* \"#utility.yul\":2493:2632   */\n      swap1\n      pop\n        /* \"#utility.yul\":2220:2639   */\n      swap2\n      swap1\n      pop\n      jump\t// out\n        /* \"#utility.yul\":2645:2722   */\n    tag_53:\n        /* \"#utility.yul\":2682:2689   */\n      0x00\n        /* \"#utility.yul\":2711:2716   */\n      dup2\n        /* \"#utility.yul\":2700:2716   */\n      swap1\n      pop\n        /* \"#utility.yul\":2645:2722   */\n      swap2\n      swap1\n      pop\n      jump\t// out\n        /* \"#utility.yul\":2728:2908   */\n    tag_54:\n        /* \"#utility.yul\":2776:2853   */\n      0x4e487b7100000000000000000000000000000000000000000000000000000000\n        /* \"#utility.yul\":2773:2774   */\n      0x00\n        /* \"#utility.yul\":2766:2854   */\n      mstore\n        /* \"#utility.yul\":2873:2877   */\n      0x12\n        /* \"#utility.yul\":2870:2871   */\n      0x04\n        /* \"#utility.yul\":2863:2878   */\n      mstore\n        /* \"#utility.yul\":2897:2901   */\n      0x24\n        /* \"#utility.yul\":2894:2895   */\n      0x00\n        /* \"#utility.yul\":2887:2902   */\n      revert\n        /* \"#utility.yul\":2914:3094   */\n    tag_55:\n        /* \"#utility.yul\":2962:3039   */\n      0x4e487b7100000000000000000000000000000000000000000000000000000000\n        /* \"#utility.yul\":2959:2960   */\n      0x00\n        /* \"#utility.yul\":2952:3040   */\n      mstore\n        /* \"#utility.yul\":3059:3063   */\n      0x11\n        /* \"#utility.yul\":3056:3057   */\n      0x04\n        /* \"#utility.yul\":3049:3064   */\n      mstore\n        /* \"#utility.yul\":3083:3087   */\n      0x24\n        /* \"#utility.yul\":3080:3081   */\n      0x00\n        /* \"#utility.yul\":3073:3088   */\n      revert\n        /* \"#utility.yul\":3100:3285   */\n    tag_22:\n        /* \"#utility.yul\":3140:3141   */\n      0x00\n        /* \"#utility.yul\":3157:3177   */\n      tag_101\n        /* \"#utility.yul\":3175:3176   */\n      dup3\n        /* \"#utility.yul\":3157:3177   */\n      tag_53\n      jump\t// in\n    tag_101:\n        /* \"#utility.yul\":3152:3177   */\n      swap2\n      pop\n        /* \"#utility.yul\":3191:3211   */\n      tag_102\n        /* \"#utility.yul\":3209:3210   */\n      dup4\n        /* \"#utility.yul\":3191:3211   */\n      tag_53\n      jump\t// in\n    tag_102:\n        /* \"#utility.yul\":3186:3211   */\n      swap3\n      pop\n        /* \"#utility.yul\":3230:3231   */\n      dup3\n        /* \"#utility.yul\":3220:3255   */\n      tag_103\n      jumpi\n        /* \"#utility.yul\":3235:3253   */\n      tag_104\n      tag_54\n      jump\t// in\n    tag_104:\n        /* \"#utility.yul\":3220:3255   */\n    tag_103:\n        /* \"#utility.yul\":3277:3278   */\n      dup3\n        /* \"#utility.yul\":3274:3275   */\n      dup3\n        /* \"#utility.yul\":3270:3279   */\n      div\n        /* \"#utility.yul\":3265:3279   */\n      swap1\n      pop\n        /* \"#utility.yul\":3100:3285   */\n      swap3\n      swap2\n      pop\n      pop\n      jump\t// out\n        /* \"#utility.yul\":3291:3639   */\n    tag_24:\n        /* \"#utility.yul\":3331:3338   */\n      0x00\n        /* \"#utility.yul\":3354:3374   */\n      tag_106\n        /* \"#utility.yul\":3372:3373   */\n      dup3\n        /* \"#utility.yul\":3354:3374   */\n      tag_53\n      jump\t// in\n    tag_106:\n        /* \"#utility.yul\":3349:3374   */\n      swap2\n      pop\n        /* \"#utility.yul\":3388:3408   */\n      tag_107\n        /* \"#utility.yul\":3406:3407   */\n      dup4\n        /* \"#utility.yul\":3388:3408   */\n      tag_53\n      jump\t// in\n    tag_107:\n        /* \"#utility.yul\":3383:3408   */\n      swap3\n      pop\n        /* \"#utility.yul\":3576:3577   */\n      dup2\n        /* \"#utility.yul\":3508:3574   */\n      0xffffffffffffffffffffffffffffffffffffffffffffffffffffffffffffffff\n        /* \"#utility.yul\":3504:3578   */\n      div\n        /* \"#utility.yul\":3501:3502   */\n      dup4\n        /* \"#utility.yul\":3498:3579   */\n      gt\n        /* \"#utility.yul\":3493:3494   */\n      dup3\n        /* \"#utility.yul\":3486:3495   */\n      iszero\n        /* \"#utility.yul\":3479:3496   */\n      iszero\n        /* \"#utility.yul\":3475:3580   */\n      and\n        /* \"#utility.yul\":3472:3603   */\n      iszero\n      tag_108\n      jumpi\n        /* \"#utility.yul\":3583:3601   */\n      tag_109\n      tag_55\n      jump\t// in\n    tag_109:\n        /* \"#utility.yul\":3472:3603   */\n    tag_108:\n        /* \"#utility.yul\":3631:3632   */\n      dup3\n        /* \"#utility.yul\":3628:3629   */\n      dup3\n        /* \"#utility.yul\":3624:3633   */\n      mul\n        /* \"#utility.yul\":3613:3633   */\n      swap1\n      pop\n        /* \"#utility.yul\":3291:3639   */\n      swap3\n      swap2\n      pop\n      pop\n      jump\t// out\n        /* \"#utility.yul\":3645:3839   */\n    tag_26:\n        /* \"#utility.yul\":3685:3689   */\n      0x00\n        /* \"#utility.yul\":3705:3725   */\n      tag_111\n        /* \"#utility.yul\":3723:3724   */\n      dup3\n        /* \"#utility.yul\":3705:3725   */\n      tag_53\n      jump\t// in\n    tag_111:\n        /* \"#utility.yul\":3700:3725   */\n      swap2\n      pop\n        /* \"#utility.yul\":3739:3759   */\n      tag_112\n        /* \"#utility.yul\":3757:3758   */\n      dup4\n        /* \"#utility.yul\":3739:3759   */\n      tag_53\n      jump\t// in\n    tag_112:\n        /* \"#utility.yul\":3734:3759   */\n      swap3\n      pop\n        /* \"#utility.yul\":3783:3784   */\n      dup3\n        /* \"#utility.yul\":3780:3781   */\n      dup3\n        /* \"#utility.yul\":3776:3785   */\n      sub\n        /* \"#utility.yul\":3768:3785   */\n      swap1\n      pop\n        /* \"#utility.yul\":3807:3808   */\n      dup2\n        /* \"#utility.yul\":3801:3805   */\n      dup2\n        /* \"#utility.yul\":3798:3809   */\n      gt\n        /* \"#utility.yul\":3795:3832   */\n      iszero\n      tag_113\n      jumpi\n        /* \"#utility.yul\":3812:3830   */\n      tag_114\n      tag_55\n      jump\t// in\n    tag_114:\n        /* \"#utility.yul\":3795:3832   */\n    tag_113:\n        /* \"#utility.yul\":3645:3839   */\n      swap3\n      swap2\n      pop\n      pop\n      jump\t// out\n        /* \"#utility.yul\":3926:4043   */\n    tag_57:\n        /* \"#utility.yul\":4035:4036   */\n      0x00\n        /* \"#utility.yul\":4032:4033   */\n      dup1\n        /* \"#utility.yul\":4025:4037   */\n      revert\n        /* \"#utility.yul\":4172:4258   */\n    tag_59:\n        /* \"#utility.yul\":4207:4214   */\n      0x00\n        /* \"#utility.yul\":4247:4251   */\n      0xff\n        /* \"#utility.yul\":4240:4245   */\n      dup3\n        /* \"#utility.yul\":4236:4252   */\n      and\n        /* \"#utility.yul\":4225:4252   */\n      swap1\n      pop\n        /* \"#utility.yul\":4172:4258   */\n      swap2\n      swap1\n      pop\n      jump\t// out\n        /* \"#utility.yul\":4264:4382   */\n    tag_60:\n        /* \"#utility.yul\":4335:4357   */\n      tag_120\n        /* \"#utility.yul\":4351:4356   */\n      dup2\n        /* \"#utility.yul\":4335:4357   */\n      tag_59\n      jump\t// in\n    tag_120:\n        /* \"#utility.yul\":4328:4333   */\n      dup2\n        /* \"#utility.yul\":4325:4358   */\n      eq\n        /* \"#utility.yul\":4315:4376   */\n      tag_121\n      jumpi\n        /* \"#utility.yul\":4372:4373   */\n      0x00\n        /* \"#utility.yul\":4369:4370   */\n      dup1\n        /* \"#utility.yul\":4362:4374   */\n      revert\n        /* \"#utility.yul\":4315:4376   */\n    tag_121:\n        /* \"#utility.yul\":4264:4382   */\n      pop\n      jump\t// out\n        /* \"#utility.yul\":4388:4527   */\n    tag_61:\n        /* \"#utility.yul\":4443:4448   */\n      0x00\n        /* \"#utility.yul\":4474:4480   */\n      dup2\n        /* \"#utility.yul\":4468:4481   */\n      mload\n        /* \"#utility.yul\":4459:4481   */\n      swap1\n      pop\n        /* \"#utility.yul\":4490:4521   */\n      tag_123\n        /* \"#utility.yul\":4515:4520   */\n      dup2\n        /* \"#utility.yul\":4490:4521   */\n      tag_60\n      jump\t// in\n    tag_123:\n        /* \"#utility.yul\":4388:4527   */\n      swap3\n      swap2\n      pop\n      pop\n      jump\t// out\n        /* \"#utility.yul\":4533:4880   */\n    tag_30:\n        /* \"#utility.yul\":4601:4607   */\n      0x00\n        /* \"#utility.yul\":4650:4652   */\n      0x20\n        /* \"#utility.yul\":4638:4647   */\n      dup3\n        /* \"#utility.yul\":4629:4636   */\n      dup5\n        /* \"#utility.yul\":4625:4648   */\n      sub\n        /* \"#utility.yul\":4621:4653   */\n      slt\n        /* \"#utility.yul\":4618:4737   */\n      iszero\n      tag_125\n      jumpi\n        /* \"#utility.yul\":4656:4735   */\n      tag_126\n      tag_57\n      jump\t// in\n    tag_126:\n        /* \"#utility.yul\":4618:4737   */\n    tag_125:\n        /* \"#utility.yul\":4776:4777   */\n      0x00\n        /* \"#utility.yul\":4801:4863   */\n      tag_127\n        /* \"#utility.yul\":4855:4862   */\n      dup5\n        /* \"#utility.yul\":4846:4852   */\n      dup3\n        /* \"#utility.yul\":4835:4844   */\n      dup6\n        /* \"#utility.yul\":4831:4853   */\n      add\n        /* \"#utility.yul\":4801:4863   */\n      tag_61\n      jump\t// in\n    tag_127:\n        /* \"#utility.yul\":4791:4863   */\n      swap2\n      pop\n        /* \"#utility.yul\":4747:4873   */\n      pop\n        /* \"#utility.yul\":4533:4880   */\n      swap3\n      swap2\n      pop\n      pop\n      jump\t// out\n        /* \"#utility.yul\":4886:4988   */\n    tag_62:\n        /* \"#utility.yul\":4928:4936   */\n      0x00\n        /* \"#utility.yul\":4975:4980   */\n      dup2\n        /* \"#utility.yul\":4972:4973   */\n      0x01\n        /* \"#utility.yul\":4968:4981   */\n      shr\n        /* \"#utility.yul\":4947:4981   */\n      swap1\n      pop\n        /* \"#utility.yul\":4886:4988   */\n      swap2\n      swap1\n      pop\n      jump\t// out\n        /* \"#utility.yul\":4994:5842   */\n    tag_63:\n        /* \"#utility.yul\":5055:5060   */\n      0x00\n        /* \"#utility.yul\":5062:5066   */\n      dup1\n        /* \"#utility.yul\":5086:5092   */\n      dup3\n        /* \"#utility.yul\":5077:5092   */\n      swap2\n      pop\n        /* \"#utility.yul\":5110:5115   */\n      dup4\n        /* \"#utility.yul\":5101:5115   */\n      swap1\n      pop\n        /* \"#utility.yul\":5124:5836   */\n    tag_130:\n        /* \"#utility.yul\":5145:5146   */\n      0x01\n        /* \"#utility.yul\":5135:5143   */\n      dup6\n        /* \"#utility.yul\":5132:5147   */\n      gt\n        /* \"#utility.yul\":5124:5836   */\n      iszero\n      tag_132\n      jumpi\n        /* \"#utility.yul\":5240:5244   */\n      dup1\n        /* \"#utility.yul\":5235:5238   */\n      dup7\n        /* \"#utility.yul\":5231:5245   */\n      div\n        /* \"#utility.yul\":5225:5229   */\n      dup2\n        /* \"#utility.yul\":5222:5246   */\n      gt\n        /* \"#utility.yul\":5219:5269   */\n      iszero\n      tag_133\n      jumpi\n        /* \"#utility.yul\":5249:5267   */\n      tag_134\n      tag_55\n      jump\t// in\n    tag_134:\n        /* \"#utility.yul\":5219:5269   */\n    tag_133:\n        /* \"#utility.yul\":5299:5300   */\n      0x01\n        /* \"#utility.yul\":5289:5297   */\n      dup6\n        /* \"#utility.yul\":5285:5301   */\n      and\n        /* \"#utility.yul\":5282:5733   */\n      iszero\n      tag_135\n      jumpi\n        /* \"#utility.yul\":5714:5718   */\n      dup1\n        /* \"#utility.yul\":5707:5712   */\n      dup3\n        /* \"#utility.yul\":5703:5719   */\n      mul\n        /* \"#utility.yul\":5694:5719   */\n      swap2\n      pop\n        /* \"#utility.yul\":5282:5733   */\n    tag_135:\n        /* \"#utility.yul\":5764:5768   */\n      dup1\n        /* \"#utility.yul\":5758:5762   */\n      dup2\n        /* \"#utility.yul\":5754:5769   */\n      mul\n        /* \"#utility.yul\":5746:5769   */\n      swap1\n      pop\n        /* \"#utility.yul\":5794:5826   */\n      tag_136\n        /* \"#utility.yul\":5817:5825   */\n      dup6\n        /* \"#utility.yul\":5794:5826   */\n      tag_62\n      jump\t// in\n    tag_136:\n        /* \"#utility.yul\":5782:5826   */\n      swap5\n      pop\n        /* \"#utility.yul\":5124:5836   */\n      jump(tag_130)\n    tag_132:\n        /* \"#utility.yul\":4994:5842   */\n      swap5\n      pop\n      swap5\n      swap3\n      pop\n      pop\n      pop\n      jump\t// out\n        /* \"#utility.yul\":5848:6921   */\n    tag_64:\n        /* \"#utility.yul\":5902:5907   */\n      0x00\n        /* \"#utility.yul\":6093:6101   */\n      dup3\n        /* \"#utility.yul\":6083:6123   */\n      tag_138\n      jumpi\n        /* \"#utility.yul\":6114:6115   */\n      0x01\n        /* \"#utility.yul\":6105:6115   */\n      swap1\n      pop\n        /* \"#utility.yul\":6116:6121   */\n      jump(tag_137)\n        /* \"#utility.yul\":6083:6123   */\n    tag_138:\n        /* \"#utility.yul\":6142:6146   */\n      dup2\n        /* \"#utility.yul\":6132:6168   */\n      tag_139\n      jumpi\n        /* \"#utility.yul\":6159:6160   */\n      0x00\n        /* \"#utility.yul\":6150:6160   */\n      swap1\n      pop\n        /* \"#utility.yul\":6161:6166   */\n      jump(tag_137)\n        /* \"#utility.yul\":6132:6168   */\n    tag_139:\n        /* \"#utility.yul\":6228:6232   */\n      dup2\n        /* \"#utility.yul\":6276:6277   */\n      0x01\n        /* \"#utility.yul\":6271:6298   */\n      dup2\n      eq\n      tag_141\n      jumpi\n        /* \"#utility.yul\":6312:6313   */\n      0x02\n        /* \"#utility.yul\":6307:6498   */\n      dup2\n      eq\n      tag_142\n      jumpi\n        /* \"#utility.yul\":6221:6498   */\n      jump(tag_140)\n        /* \"#utility.yul\":6271:6298   */\n    tag_141:\n        /* \"#utility.yul\":6289:6290   */\n      0x01\n        /* \"#utility.yul\":6280:6290   */\n      swap2\n      pop\n        /* \"#utility.yul\":6291:6296   */\n      pop\n      jump(tag_137)\n        /* \"#utility.yul\":6307:6498   */\n    tag_142:\n        /* \"#utility.yul\":6352:6355   */\n      0xff\n        /* \"#utility.yul\":6342:6350   */\n      dup5\n        /* \"#utility.yul\":6339:6356   */\n      gt\n        /* \"#utility.yul\":6336:6379   */\n      iszero\n      tag_143\n      jumpi\n        /* \"#utility.yul\":6359:6377   */\n      tag_144\n      tag_55\n      jump\t// in\n    tag_144:\n        /* \"#utility.yul\":6336:6379   */\n    tag_143:\n        /* \"#utility.yul\":6408:6416   */\n      dup4\n        /* \"#utility.yul\":6405:6406   */\n      0x02\n        /* \"#utility.yul\":6401:6417   */\n      exp\n        /* \"#utility.yul\":6392:6417   */\n      swap2\n      pop\n        /* \"#utility.yul\":6443:6446   */\n      dup5\n        /* \"#utility.yul\":6436:6441   */\n      dup3\n        /* \"#utility.yul\":6433:6447   */\n      gt\n        /* \"#utility.yul\":6430:6470   */\n      iszero\n      tag_145\n      jumpi\n        /* \"#utility.yul\":6450:6468   */\n      tag_146\n      tag_55\n      jump\t// in\n    tag_146:\n        /* \"#utility.yul\":6430:6470   */\n    tag_145:\n        /* \"#utility.yul\":6483:6488   */\n      pop\n      jump(tag_137)\n        /* \"#utility.yul\":6221:6498   */\n    tag_140:\n      pop\n        /* \"#utility.yul\":6607:6609   */\n      0x20\n        /* \"#utility.yul\":6597:6605   */\n      dup4\n        /* \"#utility.yul\":6594:6610   */\n      lt\n        /* \"#utility.yul\":6588:6591   */\n      0x0133\n        /* \"#utility.yul\":6582:6586   */\n      dup4\n        /* \"#utility.yul\":6579:6592   */\n      lt\n        /* \"#utility.yul\":6575:6611   */\n      and\n        /* \"#utility.yul\":6557:6559   */\n      0x4e\n        /* \"#utility.yul\":6547:6555   */\n      dup5\n        /* \"#utility.yul\":6544:6560   */\n      lt\n        /* \"#utility.yul\":6539:6541   */\n      0x0b\n        /* \"#utility.yul\":6533:6537   */\n      dup5\n        /* \"#utility.yul\":6530:6542   */\n      lt\n        /* \"#utility.yul\":6526:6561   */\n      and\n        /* \"#utility.yul\":6510:6621   */\n      or\n        /* \"#utility.yul\":6507:6753   */\n      iszero\n      tag_147\n      jumpi\n        /* \"#utility.yul\":6663:6671   */\n      dup3\n        /* \"#utility.yul\":6657:6661   */\n      dup3\n        /* \"#utility.yul\":6653:6672   */\n      exp\n        /* \"#utility.yul\":6644:6672   */\n      swap1\n      pop\n        /* \"#utility.yul\":6698:6701   */\n      dup4\n        /* \"#utility.yul\":6691:6696   */\n      dup2\n        /* \"#utility.yul\":6688:6702   */\n      gt\n        /* \"#utility.yul\":6685:6725   */\n      iszero\n      tag_148\n      jumpi\n        /* \"#utility.yul\":6705:6723   */\n      tag_149\n      tag_55\n      jump\t// in\n    tag_149:\n        /* \"#utility.yul\":6685:6725   */\n    tag_148:\n        /* \"#utility.yul\":6738:6743   */\n      jump(tag_137)\n        /* \"#utility.yul\":6507:6753   */\n    tag_147:\n        /* \"#utility.yul\":6778:6820   */\n      tag_150\n        /* \"#utility.yul\":6816:6819   */\n      dup5\n        /* \"#utility.yul\":6806:6814   */\n      dup5\n        /* \"#utility.yul\":6800:6804   */\n      dup5\n        /* \"#utility.yul\":6797:6798   */\n      0x01\n        /* \"#utility.yul\":6778:6820   */\n      tag_63\n      jump\t// in\n    tag_150:\n        /* \"#utility.yul\":6763:6820   */\n      swap3\n      pop\n      swap1\n      pop\n        /* \"#utility.yul\":6852:6856   */\n      dup2\n        /* \"#utility.yul\":6847:6850   */\n      dup5\n        /* \"#utility.yul\":6843:6857   */\n      div\n        /* \"#utility.yul\":6836:6841   */\n      dup2\n        /* \"#utility.yul\":6833:6858   */\n      gt\n        /* \"#utility.yul\":6830:6881   */\n      iszero\n      tag_151\n      jumpi\n        /* \"#utility.yul\":6861:6879   */\n      tag_152\n      tag_55\n      jump\t// in\n    tag_152:\n        /* \"#utility.yul\":6830:6881   */\n    tag_151:\n        /* \"#utility.yul\":6910:6914   */\n      dup2\n        /* \"#utility.yul\":6903:6908   */\n      dup2\n        /* \"#utility.yul\":6899:6915   */\n      mul\n        /* \"#utility.yul\":6890:6915   */\n      swap1\n      pop\n        /* \"#utility.yul\":5848:6921   */\n    tag_137:\n      swap4\n      swap3\n      pop\n      pop\n      pop\n      jump\t// out\n        /* \"#utility.yul\":6927:7208   */\n    tag_32:\n        /* \"#utility.yul\":6985:6990   */\n      0x00\n        /* \"#utility.yul\":7009:7032   */\n      tag_154\n        /* \"#utility.yul\":7027:7031   */\n      dup3\n        /* \"#utility.yul\":7009:7032   */\n      tag_53\n      jump\t// in\n    tag_154:\n        /* \"#utility.yul\":7001:7032   */\n      swap2\n      pop\n        /* \"#utility.yul\":7053:7078   */\n      tag_155\n        /* \"#utility.yul\":7069:7077   */\n      dup4\n        /* \"#utility.yul\":7053:7078   */\n      tag_59\n      jump\t// in\n    tag_155:\n        /* \"#utility.yul\":7041:7078   */\n      swap3\n      pop\n        /* \"#utility.yul\":7097:7201   */\n      tag_156\n        /* \"#utility.yul\":7134:7200   */\n      0xffffffffffffffffffffffffffffffffffffffffffffffffffffffffffffffff\n        /* \"#utility.yul\":7124:7132   */\n      dup5\n        /* \"#utility.yul\":7118:7122   */\n      dup5\n        /* \"#utility.yul\":7097:7201   */\n      tag_64\n      jump\t// in\n    tag_156:\n        /* \"#utility.yul\":7088:7201   */\n      swap1\n      pop\n        /* \"#utility.yul\":6927:7208   */\n      swap3\n      swap2\n      pop\n      pop\n      jump\t// out\n        /* \"#utility.yul\":7214:7332   */\n    tag_65:\n        /* \"#utility.yul\":7301:7325   */\n      tag_158\n        /* \"#utility.yul\":7319:7324   */\n      dup2\n        /* \"#utility.yul\":7301:7325   */\n      tag_53\n      jump\t// in\n    tag_158:\n        /* \"#utility.yul\":7296:7299   */\n      dup3\n        /* \"#utility.yul\":7289:7326   */\n      mstore\n        /* \"#utility.yul\":7214:7332   */\n      pop\n      pop\n      jump\t// out\n        /* \"#utility.yul\":7338:7780   */\n    tag_35:\n        /* \"#utility.yul\":7487:7491   */\n      0x00\n        /* \"#utility.yul\":7525:7527   */\n      0x60\n        /* \"#utility.yul\":7514:7523   */\n      dup3\n        /* \"#utility.yul\":7510:7528   */\n      add\n        /* \"#utility.yul\":7502:7528   */\n      swap1\n      pop\n        /* \"#utility.yul\":7538:7609   */\n      tag_160\n        /* \"#utility.yul\":7606:7607   */\n      0x00\n        /* \"#utility.yul\":7595:7604   */\n      dup4\n        /* \"#utility.yul\":7591:7608   */\n      add\n        /* \"#utility.yul\":7582:7588   */\n      dup7\n        /* \"#utility.yul\":7538:7609   */\n      tag_44\n      jump\t// in\n    tag_160:\n        /* \"#utility.yul\":7619:7691   */\n      tag_161\n        /* \"#utility.yul\":7687:7689   */\n      0x20\n        /* \"#utility.yul\":7676:7685   */\n      dup4\n        /* \"#utility.yul\":7672:7690   */\n      add\n        /* \"#utility.yul\":7663:7669   */\n      dup6\n        /* \"#utility.yul\":7619:7691   */\n      tag_44\n      jump\t// in\n    tag_161:\n        /* \"#utility.yul\":7701:7773   */\n      tag_162\n        /* \"#utility.yul\":7769:7771   */\n      0x40\n        /* \"#utility.yul\":7758:7767   */\n      dup4\n        /* \"#utility.yul\":7754:7772   */\n      add\n        /* \"#utility.yul\":7745:7751   */\n      dup5\n        /* \"#utility.yul\":7701:7773   */\n      tag_65\n      jump\t// in\n    tag_162:\n        /* \"#utility.yul\":7338:7780   */\n      swap5\n      swap4\n      pop\n      pop\n      pop\n      pop\n      jump\t// out\n        /* \"#utility.yul\":7786:7876   */\n    tag_66:\n        /* \"#utility.yul\":7820:7827   */\n      0x00\n        /* \"#utility.yul\":7863:7868   */\n      dup2\n        /* \"#utility.yul\":7856:7869   */\n      iszero\n        /* \"#utility.yul\":7849:7870   */\n      iszero\n        /* \"#utility.yul\":7838:7870   */\n      swap1\n      pop\n        /* \"#utility.yul\":7786:7876   */\n      swap2\n      swap1\n      pop\n      jump\t// out\n        /* \"#utility.yul\":7882:7998   */\n    tag_67:\n        /* \"#utility.yul\":7952:7973   */\n      tag_165\n        /* \"#utility.yul\":7967:7972   */\n      dup2\n        /* \"#utility.yul\":7952:7973   */\n      tag_66\n      jump\t// in\n    tag_165:\n        /* \"#utility.yul\":7945:7950   */\n      dup2\n        /* \"#utility.yul\":7942:7974   */\n      eq\n        /* \"#utility.yul\":7932:7992   */\n      tag_166\n      jumpi\n        /* \"#utility.yul\":7988:7989   */\n      0x00\n        /* \"#utility.yul\":7985:7986   */\n      dup1\n        /* \"#utility.yul\":7978:7990   */\n      revert\n        /* \"#utility.yul\":7932:7992   */\n    tag_166:\n        /* \"#utility.yul\":7882:7998   */\n      pop\n      jump\t// out\n        /* \"#utility.yul\":8004:8141   */\n    tag_68:\n        /* \"#utility.yul\":8058:8063   */\n      0x00\n        /* \"#utility.yul\":8089:8095   */\n      dup2\n        /* \"#utility.yul\":8083:8096   */\n      mload\n        /* \"#utility.yul\":8074:8096   */\n      swap1\n      pop\n        /* \"#utility.yul\":8105:8135   */\n      tag_168\n        /* \"#utility.yul\":8129:8134   */\n      dup2\n        /* \"#utility.yul\":8105:8135   */\n      tag_67\n      jump\t// in\n    tag_168:\n        /* \"#utility.yul\":8004:8141   */\n      swap3\n      swap2\n      pop\n      pop\n      jump\t// out\n        /* \"#utility.yul\":8147:8492   */\n    tag_39:\n        /* \"#utility.yul\":8214:8220   */\n      0x00\n        /* \"#utility.yul\":8263:8265   */\n      0x20\n        /* \"#utility.yul\":8251:8260   */\n      dup3\n        /* \"#utility.yul\":8242:8249   */\n      dup5\n        /* \"#utility.yul\":8238:8261   */\n      sub\n        /* \"#utility.yul\":8234:8266   */\n      slt\n        /* \"#utility.yul\":8231:8350   */\n      iszero\n      tag_170\n      jumpi\n        /* \"#utility.yul\":8269:8348   */\n      tag_171\n      tag_57\n      jump\t// in\n    tag_171:\n        /* \"#utility.yul\":8231:8350   */\n    tag_170:\n        /* \"#utility.yul\":8389:8390   */\n      0x00\n        /* \"#utility.yul\":8414:8475   */\n      tag_172\n        /* \"#utility.yul\":8467:8474   */\n      dup5\n        /* \"#utility.yul\":8458:8464   */\n      dup3\n        /* \"#utility.yul\":8447:8456   */\n      dup6\n        /* \"#utility.yul\":8443:8465   */\n      add\n        /* \"#utility.yul\":8414:8475   */\n      tag_68\n      jump\t// in\n    tag_172:\n        /* \"#utility.yul\":8404:8475   */\n      swap2\n      pop\n        /* \"#utility.yul\":8360:8485   */\n      pop\n        /* \"#utility.yul\":8147:8492   */\n      swap3\n      swap2\n      pop\n      pop\n      jump\t// out\n\n    auxdata: 0xa264697066735822122064463f5f58c3454376865db9055ddc6227a71e8715fc3dfba5fdb12766357e6d64736f6c63430008100033\n}\n",
				"bytecode": {
					"linkReferences": {},
					"object": "6080604052670de0b6b3a764000060005534801561001c57600080fd5b506040516109b93803806109b9833981810160405281019061003e9190610129565b33600260006101000a81548173ffffffffffffffffffffffffffffffffffffffff021916908373ffffffffffffffffffffffffffffffffffffffff16021790555080600160006101000a81548173ffffffffffffffffffffffffffffffffffffffff021916908373ffffffffffffffffffffffffffffffffffffffff16021790555050610156565b600080fd5b600073ffffffffffffffffffffffffffffffffffffffff82169050919050565b60006100f6826100cb565b9050919050565b610106816100eb565b811461011157600080fd5b50565b600081519050610123816100fd565b92915050565b60006020828403121561013f5761013e6100c6565b5b600061014d84828501610114565b91505092915050565b610854806101656000396000f3fe6080604052600436106100345760003560e01c8063a3e6761014610039578063dfa5a25d14610064578063fc0c546a1461006e575b600080fd5b34801561004557600080fd5b5061004e610099565b60405161005b9190610351565b60405180910390f35b61006c6100bf565b005b34801561007a57600080fd5b506100836102ea565b60405161009091906103cb565b60405180910390f35b600260009054906101000a900473ffffffffffffffffffffffffffffffffffffffff1681565b600054341015610104576040517f08c379a00000000000000000000000000000000000000000000000000000000081526004016100fb90610443565b60405180910390fd5b600080543461011391906104cb565b9050600080548261012491906104fc565b3461012f9190610556565b9050600160009054906101000a900473ffffffffffffffffffffffffffffffffffffffff1673ffffffffffffffffffffffffffffffffffffffff166323b872dd600260009054906101000a900473ffffffffffffffffffffffffffffffffffffffff1633600160009054906101000a900473ffffffffffffffffffffffffffffffffffffffff1673ffffffffffffffffffffffffffffffffffffffff1663313ce5676040518163ffffffff1660e01b81526004016020604051808303816000875af1158015610202573d6000803e3d6000fd5b505050506040513d601f19601f8201168201806040525081019061022691906105c8565b600a6102329190610728565b8661023d91906104fc565b6040518463ffffffff1660e01b815260040161025b93929190610782565b6020604051808303816000875af115801561027a573d6000803e3d6000fd5b505050506040513d601f19601f8201168201806040525081019061029e91906107f1565b503373ffffffffffffffffffffffffffffffffffffffff166108fc829081150290604051600060405180830381858888f193505050501580156102e5573d6000803e3d6000fd5b505050565b600160009054906101000a900473ffffffffffffffffffffffffffffffffffffffff1681565b600073ffffffffffffffffffffffffffffffffffffffff82169050919050565b600061033b82610310565b9050919050565b61034b81610330565b82525050565b60006020820190506103666000830184610342565b92915050565b6000819050919050565b600061039161038c61038784610310565b61036c565b610310565b9050919050565b60006103a382610376565b9050919050565b60006103b582610398565b9050919050565b6103c5816103aa565b82525050565b60006020820190506103e060008301846103bc565b92915050565b600082825260208201905092915050565b7f4e6f7420656e6f756768206d6f6e65792073656e640000000000000000000000600082015250565b600061042d6015836103e6565b9150610438826103f7565b602082019050919050565b6000602082019050818103600083015261045c81610420565b9050919050565b6000819050919050565b7f4e487b7100000000000000000000000000000000000000000000000000000000600052601260045260246000fd5b7f4e487b7100000000000000000000000000000000000000000000000000000000600052601160045260246000fd5b60006104d682610463565b91506104e183610463565b9250826104f1576104f061046d565b5b828204905092915050565b600061050782610463565b915061051283610463565b9250817fffffffffffffffffffffffffffffffffffffffffffffffffffffffffffffffff048311821515161561054b5761054a61049c565b5b828202905092915050565b600061056182610463565b915061056c83610463565b92508282039050818111156105845761058361049c565b5b92915050565b600080fd5b600060ff82169050919050565b6105a58161058f565b81146105b057600080fd5b50565b6000815190506105c28161059c565b92915050565b6000602082840312156105de576105dd61058a565b5b60006105ec848285016105b3565b91505092915050565b60008160011c9050919050565b6000808291508390505b600185111561064c578086048111156106285761062761049c565b5b60018516156106375780820291505b8081029050610645856105f5565b945061060c565b94509492505050565b6000826106655760019050610721565b816106735760009050610721565b81600181146106895760028114610693576106c2565b6001915050610721565b60ff8411156106a5576106a461049c565b5b8360020a9150848211156106bc576106bb61049c565b5b50610721565b5060208310610133831016604e8410600b84101617156106f75782820a9050838111156106f2576106f161049c565b5b610721565b6107048484846001610602565b9250905081840481111561071b5761071a61049c565b5b81810290505b9392505050565b600061073382610463565b915061073e8361058f565b925061076b7fffffffffffffffffffffffffffffffffffffffffffffffffffffffffffffffff8484610655565b905092915050565b61077c81610463565b82525050565b60006060820190506107976000830186610342565b6107a46020830185610342565b6107b16040830184610773565b949350505050565b60008115159050919050565b6107ce816107b9565b81146107d957600080fd5b50565b6000815190506107eb816107c5565b92915050565b6000602082840312156108075761080661058a565b5b6000610815848285016107dc565b9150509291505056fea264697066735822122064463f5f58c3454376865db9055ddc6227a71e8715fc3dfba5fdb12766357e6d64736f6c63430008100033",
					"opcodes": "PUSH1 0x80 PUSH1 0x40 MSTORE PUSH8 0xDE0B6B3A7640000 PUSH1 0x0 SSTORE CALLVALUE DUP1 ISZERO PUSH2 0x1C JUMPI PUSH1 0x0 DUP1 REVERT JUMPDEST POP PUSH1 0x40 MLOAD PUSH2 0x9B9 CODESIZE SUB DUP1 PUSH2 0x9B9 DUP4 CODECOPY DUP2 DUP2 ADD PUSH1 0x40 MSTORE DUP2 ADD SWAP1 PUSH2 0x3E SWAP2 SWAP1 PUSH2 0x129 JUMP JUMPDEST CALLER PUSH1 0x2 PUSH1 0x0 PUSH2 0x100 EXP DUP2 SLOAD DUP2 PUSH20 0xFFFFFFFFFFFFFFFFFFFFFFFFFFFFFFFFFFFFFFFF MUL NOT AND SWAP1 DUP4 PUSH20 0xFFFFFFFFFFFFFFFFFFFFFFFFFFFFFFFFFFFFFFFF AND MUL OR SWAP1 SSTORE POP DUP1 PUSH1 0x1 PUSH1 0x0 PUSH2 0x100 EXP DUP2 SLOAD DUP2 PUSH20 0xFFFFFFFFFFFFFFFFFFFFFFFFFFFFFFFFFFFFFFFF MUL NOT AND SWAP1 DUP4 PUSH20 0xFFFFFFFFFFFFFFFFFFFFFFFFFFFFFFFFFFFFFFFF AND MUL OR SWAP1 SSTORE POP POP PUSH2 0x156 JUMP JUMPDEST PUSH1 0x0 DUP1 REVERT JUMPDEST PUSH1 0x0 PUSH20 0xFFFFFFFFFFFFFFFFFFFFFFFFFFFFFFFFFFFFFFFF DUP3 AND SWAP1 POP SWAP2 SWAP1 POP JUMP JUMPDEST PUSH1 0x0 PUSH2 0xF6 DUP3 PUSH2 0xCB JUMP JUMPDEST SWAP1 POP SWAP2 SWAP1 POP JUMP JUMPDEST PUSH2 0x106 DUP2 PUSH2 0xEB JUMP JUMPDEST DUP2 EQ PUSH2 0x111 JUMPI PUSH1 0x0 DUP1 REVERT JUMPDEST POP JUMP JUMPDEST PUSH1 0x0 DUP2 MLOAD SWAP1 POP PUSH2 0x123 DUP2 PUSH2 0xFD JUMP JUMPDEST SWAP3 SWAP2 POP POP JUMP JUMPDEST PUSH1 0x0 PUSH1 0x20 DUP3 DUP5 SUB SLT ISZERO PUSH2 0x13F JUMPI PUSH2 0x13E PUSH2 0xC6 JUMP JUMPDEST JUMPDEST PUSH1 0x0 PUSH2 0x14D DUP5 DUP3 DUP6 ADD PUSH2 0x114 JUMP JUMPDEST SWAP2 POP POP SWAP3 SWAP2 POP POP JUMP JUMPDEST PUSH2 0x854 DUP1 PUSH2 0x165 PUSH1 0x0 CODECOPY PUSH1 0x0 RETURN INVALID PUSH1 0x80 PUSH1 0x40 MSTORE PUSH1 0x4 CALLDATASIZE LT PUSH2 0x34 JUMPI PUSH1 0x0 CALLDATALOAD PUSH1 0xE0 SHR DUP1 PUSH4 0xA3E67610 EQ PUSH2 0x39 JUMPI DUP1 PUSH4 0xDFA5A25D EQ PUSH2 0x64 JUMPI DUP1 PUSH4 0xFC0C546A EQ PUSH2 0x6E JUMPI JUMPDEST PUSH1 0x0 DUP1 REVERT JUMPDEST CALLVALUE DUP1 ISZERO PUSH2 0x45 JUMPI PUSH1 0x0 DUP1 REVERT JUMPDEST POP PUSH2 0x4E PUSH2 0x99 JUMP JUMPDEST PUSH1 0x40 MLOAD PUSH2 0x5B SWAP2 SWAP1 PUSH2 0x351 JUMP JUMPDEST PUSH1 0x40 MLOAD DUP1 SWAP2 SUB SWAP1 RETURN JUMPDEST PUSH2 0x6C PUSH2 0xBF JUMP JUMPDEST STOP JUMPDEST CALLVALUE DUP1 ISZERO PUSH2 0x7A JUMPI PUSH1 0x0 DUP1 REVERT JUMPDEST POP PUSH2 0x83 PUSH2 0x2EA JUMP JUMPDEST PUSH1 0x40 MLOAD PUSH2 0x90 SWAP2 SWAP1 PUSH2 0x3CB JUMP JUMPDEST PUSH1 0x40 MLOAD DUP1 SWAP2 SUB SWAP1 RETURN JUMPDEST PUSH1 0x2 PUSH1 0x0 SWAP1 SLOAD SWAP1 PUSH2 0x100 EXP SWAP1 DIV PUSH20 0xFFFFFFFFFFFFFFFFFFFFFFFFFFFFFFFFFFFFFFFF AND DUP2 JUMP JUMPDEST PUSH1 0x0 SLOAD CALLVALUE LT ISZERO PUSH2 0x104 JUMPI PUSH1 0x40 MLOAD PUSH32 0x8C379A000000000000000000000000000000000000000000000000000000000 DUP2 MSTORE PUSH1 0x4 ADD PUSH2 0xFB SWAP1 PUSH2 0x443 JUMP JUMPDEST PUSH1 0x40 MLOAD DUP1 SWAP2 SUB SWAP1 REVERT JUMPDEST PUSH1 0x0 DUP1 SLOAD CALLVALUE PUSH2 0x113 SWAP2 SWAP1 PUSH2 0x4CB JUMP JUMPDEST SWAP1 POP PUSH1 0x0 DUP1 SLOAD DUP3 PUSH2 0x124 SWAP2 SWAP1 PUSH2 0x4FC JUMP JUMPDEST CALLVALUE PUSH2 0x12F SWAP2 SWAP1 PUSH2 0x556 JUMP JUMPDEST SWAP1 POP PUSH1 0x1 PUSH1 0x0 SWAP1 SLOAD SWAP1 PUSH2 0x100 EXP SWAP1 DIV PUSH20 0xFFFFFFFFFFFFFFFFFFFFFFFFFFFFFFFFFFFFFFFF AND PUSH20 0xFFFFFFFFFFFFFFFFFFFFFFFFFFFFFFFFFFFFFFFF AND PUSH4 0x23B872DD PUSH1 0x2 PUSH1 0x0 SWAP1 SLOAD SWAP1 PUSH2 0x100 EXP SWAP1 DIV PUSH20 0xFFFFFFFFFFFFFFFFFFFFFFFFFFFFFFFFFFFFFFFF AND CALLER PUSH1 0x1 PUSH1 0x0 SWAP1 SLOAD SWAP1 PUSH2 0x100 EXP SWAP1 DIV PUSH20 0xFFFFFFFFFFFFFFFFFFFFFFFFFFFFFFFFFFFFFFFF AND PUSH20 0xFFFFFFFFFFFFFFFFFFFFFFFFFFFFFFFFFFFFFFFF AND PUSH4 0x313CE567 PUSH1 0x40 MLOAD DUP2 PUSH4 0xFFFFFFFF AND PUSH1 0xE0 SHL DUP2 MSTORE PUSH1 0x4 ADD PUSH1 0x20 PUSH1 0x40 MLOAD DUP1 DUP4 SUB DUP2 PUSH1 0x0 DUP8 GAS CALL ISZERO DUP1 ISZERO PUSH2 0x202 JUMPI RETURNDATASIZE PUSH1 0x0 DUP1 RETURNDATACOPY RETURNDATASIZE PUSH1 0x0 REVERT JUMPDEST POP POP POP POP PUSH1 0x40 MLOAD RETURNDATASIZE PUSH1 0x1F NOT PUSH1 0x1F DUP3 ADD AND DUP3 ADD DUP1 PUSH1 0x40 MSTORE POP DUP2 ADD SWAP1 PUSH2 0x226 SWAP2 SWAP1 PUSH2 0x5C8 JUMP JUMPDEST PUSH1 0xA PUSH2 0x232 SWAP2 SWAP1 PUSH2 0x728 JUMP JUMPDEST DUP7 PUSH2 0x23D SWAP2 SWAP1 PUSH2 0x4FC JUMP JUMPDEST PUSH1 0x40 MLOAD DUP5 PUSH4 0xFFFFFFFF AND PUSH1 0xE0 SHL DUP2 MSTORE PUSH1 0x4 ADD PUSH2 0x25B SWAP4 SWAP3 SWAP2 SWAP1 PUSH2 0x782 JUMP JUMPDEST PUSH1 0x20 PUSH1 0x40 MLOAD DUP1 DUP4 SUB DUP2 PUSH1 0x0 DUP8 GAS CALL ISZERO DUP1 ISZERO PUSH2 0x27A JUMPI RETURNDATASIZE PUSH1 0x0 DUP1 RETURNDATACOPY RETURNDATASIZE PUSH1 0x0 REVERT JUMPDEST POP POP POP POP PUSH1 0x40 MLOAD RETURNDATASIZE PUSH1 0x1F NOT PUSH1 0x1F DUP3 ADD AND DUP3 ADD DUP1 PUSH1 0x40 MSTORE POP DUP2 ADD SWAP1 PUSH2 0x29E SWAP2 SWAP1 PUSH2 0x7F1 JUMP JUMPDEST POP CALLER PUSH20 0xFFFFFFFFFFFFFFFFFFFFFFFFFFFFFFFFFFFFFFFF AND PUSH2 0x8FC DUP3 SWAP1 DUP2 ISZERO MUL SWAP1 PUSH1 0x40 MLOAD PUSH1 0x0 PUSH1 0x40 MLOAD DUP1 DUP4 SUB DUP2 DUP6 DUP9 DUP9 CALL SWAP4 POP POP POP POP ISZERO DUP1 ISZERO PUSH2 0x2E5 JUMPI RETURNDATASIZE PUSH1 0x0 DUP1 RETURNDATACOPY RETURNDATASIZE PUSH1 0x0 REVERT JUMPDEST POP POP POP JUMP JUMPDEST PUSH1 0x1 PUSH1 0x0 SWAP1 SLOAD SWAP1 PUSH2 0x100 EXP SWAP1 DIV PUSH20 0xFFFFFFFFFFFFFFFFFFFFFFFFFFFFFFFFFFFFFFFF AND DUP2 JUMP JUMPDEST PUSH1 0x0 PUSH20 0xFFFFFFFFFFFFFFFFFFFFFFFFFFFFFFFFFFFFFFFF DUP3 AND SWAP1 POP SWAP2 SWAP1 POP JUMP JUMPDEST PUSH1 0x0 PUSH2 0x33B DUP3 PUSH2 0x310 JUMP JUMPDEST SWAP1 POP SWAP2 SWAP1 POP JUMP JUMPDEST PUSH2 0x34B DUP2 PUSH2 0x330 JUMP JUMPDEST DUP3 MSTORE POP POP JUMP JUMPDEST PUSH1 0x0 PUSH1 0x20 DUP3 ADD SWAP1 POP PUSH2 0x366 PUSH1 0x0 DUP4 ADD DUP5 PUSH2 0x342 JUMP JUMPDEST SWAP3 SWAP2 POP POP JUMP JUMPDEST PUSH1 0x0 DUP2 SWAP1 POP SWAP2 SWAP1 POP JUMP JUMPDEST PUSH1 0x0 PUSH2 0x391 PUSH2 0x38C PUSH2 0x387 DUP5 PUSH2 0x310 JUMP JUMPDEST PUSH2 0x36C JUMP JUMPDEST PUSH2 0x310 JUMP JUMPDEST SWAP1 POP SWAP2 SWAP1 POP JUMP JUMPDEST PUSH1 0x0 PUSH2 0x3A3 DUP3 PUSH2 0x376 JUMP JUMPDEST SWAP1 POP SWAP2 SWAP1 POP JUMP JUMPDEST PUSH1 0x0 PUSH2 0x3B5 DUP3 PUSH2 0x398 JUMP JUMPDEST SWAP1 POP SWAP2 SWAP1 POP JUMP JUMPDEST PUSH2 0x3C5 DUP2 PUSH2 0x3AA JUMP JUMPDEST DUP3 MSTORE POP POP JUMP JUMPDEST PUSH1 0x0 PUSH1 0x20 DUP3 ADD SWAP1 POP PUSH2 0x3E0 PUSH1 0x0 DUP4 ADD DUP5 PUSH2 0x3BC JUMP JUMPDEST SWAP3 SWAP2 POP POP JUMP JUMPDEST PUSH1 0x0 DUP3 DUP3 MSTORE PUSH1 0x20 DUP3 ADD SWAP1 POP SWAP3 SWAP2 POP POP JUMP JUMPDEST PUSH32 0x4E6F7420656E6F756768206D6F6E65792073656E640000000000000000000000 PUSH1 0x0 DUP3 ADD MSTORE POP JUMP JUMPDEST PUSH1 0x0 PUSH2 0x42D PUSH1 0x15 DUP4 PUSH2 0x3E6 JUMP JUMPDEST SWAP2 POP PUSH2 0x438 DUP3 PUSH2 0x3F7 JUMP JUMPDEST PUSH1 0x20 DUP3 ADD SWAP1 POP SWAP2 SWAP1 POP JUMP JUMPDEST PUSH1 0x0 PUSH1 0x20 DUP3 ADD SWAP1 POP DUP2 DUP2 SUB PUSH1 0x0 DUP4 ADD MSTORE PUSH2 0x45C DUP2 PUSH2 0x420 JUMP JUMPDEST SWAP1 POP SWAP2 SWAP1 POP JUMP JUMPDEST PUSH1 0x0 DUP2 SWAP1 POP SWAP2 SWAP1 POP JUMP JUMPDEST PUSH32 0x4E487B7100000000000000000000000000000000000000000000000000000000 PUSH1 0x0 MSTORE PUSH1 0x12 PUSH1 0x4 MSTORE PUSH1 0x24 PUSH1 0x0 REVERT JUMPDEST PUSH32 0x4E487B7100000000000000000000000000000000000000000000000000000000 PUSH1 0x0 MSTORE PUSH1 0x11 PUSH1 0x4 MSTORE PUSH1 0x24 PUSH1 0x0 REVERT JUMPDEST PUSH1 0x0 PUSH2 0x4D6 DUP3 PUSH2 0x463 JUMP JUMPDEST SWAP2 POP PUSH2 0x4E1 DUP4 PUSH2 0x463 JUMP JUMPDEST SWAP3 POP DUP3 PUSH2 0x4F1 JUMPI PUSH2 0x4F0 PUSH2 0x46D JUMP JUMPDEST JUMPDEST DUP3 DUP3 DIV SWAP1 POP SWAP3 SWAP2 POP POP JUMP JUMPDEST PUSH1 0x0 PUSH2 0x507 DUP3 PUSH2 0x463 JUMP JUMPDEST SWAP2 POP PUSH2 0x512 DUP4 PUSH2 0x463 JUMP JUMPDEST SWAP3 POP DUP2 PUSH32 0xFFFFFFFFFFFFFFFFFFFFFFFFFFFFFFFFFFFFFFFFFFFFFFFFFFFFFFFFFFFFFFFF DIV DUP4 GT DUP3 ISZERO ISZERO AND ISZERO PUSH2 0x54B JUMPI PUSH2 0x54A PUSH2 0x49C JUMP JUMPDEST JUMPDEST DUP3 DUP3 MUL SWAP1 POP SWAP3 SWAP2 POP POP JUMP JUMPDEST PUSH1 0x0 PUSH2 0x561 DUP3 PUSH2 0x463 JUMP JUMPDEST SWAP2 POP PUSH2 0x56C DUP4 PUSH2 0x463 JUMP JUMPDEST SWAP3 POP DUP3 DUP3 SUB SWAP1 POP DUP2 DUP2 GT ISZERO PUSH2 0x584 JUMPI PUSH2 0x583 PUSH2 0x49C JUMP JUMPDEST JUMPDEST SWAP3 SWAP2 POP POP JUMP JUMPDEST PUSH1 0x0 DUP1 REVERT JUMPDEST PUSH1 0x0 PUSH1 0xFF DUP3 AND SWAP1 POP SWAP2 SWAP1 POP JUMP JUMPDEST PUSH2 0x5A5 DUP2 PUSH2 0x58F JUMP JUMPDEST DUP2 EQ PUSH2 0x5B0 JUMPI PUSH1 0x0 DUP1 REVERT JUMPDEST POP JUMP JUMPDEST PUSH1 0x0 DUP2 MLOAD SWAP1 POP PUSH2 0x5C2 DUP2 PUSH2 0x59C JUMP JUMPDEST SWAP3 SWAP2 POP POP JUMP JUMPDEST PUSH1 0x0 PUSH1 0x20 DUP3 DUP5 SUB SLT ISZERO PUSH2 0x5DE JUMPI PUSH2 0x5DD PUSH2 0x58A JUMP JUMPDEST JUMPDEST PUSH1 0x0 PUSH2 0x5EC DUP5 DUP3 DUP6 ADD PUSH2 0x5B3 JUMP JUMPDEST SWAP2 POP POP SWAP3 SWAP2 POP POP JUMP JUMPDEST PUSH1 0x0 DUP2 PUSH1 0x1 SHR SWAP1 POP SWAP2 SWAP1 POP JUMP JUMPDEST PUSH1 0x0 DUP1 DUP3 SWAP2 POP DUP4 SWAP1 POP JUMPDEST PUSH1 0x1 DUP6 GT ISZERO PUSH2 0x64C JUMPI DUP1 DUP7 DIV DUP2 GT ISZERO PUSH2 0x628 JUMPI PUSH2 0x627 PUSH2 0x49C JUMP JUMPDEST JUMPDEST PUSH1 0x1 DUP6 AND ISZERO PUSH2 0x637 JUMPI DUP1 DUP3 MUL SWAP2 POP JUMPDEST DUP1 DUP2 MUL SWAP1 POP PUSH2 0x645 DUP6 PUSH2 0x5F5 JUMP JUMPDEST SWAP5 POP PUSH2 0x60C JUMP JUMPDEST SWAP5 POP SWAP5 SWAP3 POP POP POP JUMP JUMPDEST PUSH1 0x0 DUP3 PUSH2 0x665 JUMPI PUSH1 0x1 SWAP1 POP PUSH2 0x721 JUMP JUMPDEST DUP2 PUSH2 0x673 JUMPI PUSH1 0x0 SWAP1 POP PUSH2 0x721 JUMP JUMPDEST DUP2 PUSH1 0x1 DUP2 EQ PUSH2 0x689 JUMPI PUSH1 0x2 DUP2 EQ PUSH2 0x693 JUMPI PUSH2 0x6C2 JUMP JUMPDEST PUSH1 0x1 SWAP2 POP POP PUSH2 0x721 JUMP JUMPDEST PUSH1 0xFF DUP5 GT ISZERO PUSH2 0x6A5 JUMPI PUSH2 0x6A4 PUSH2 0x49C JUMP JUMPDEST JUMPDEST DUP4 PUSH1 0x2 EXP SWAP2 POP DUP5 DUP3 GT ISZERO PUSH2 0x6BC JUMPI PUSH2 0x6BB PUSH2 0x49C JUMP JUMPDEST JUMPDEST POP PUSH2 0x721 JUMP JUMPDEST POP PUSH1 0x20 DUP4 LT PUSH2 0x133 DUP4 LT AND PUSH1 0x4E DUP5 LT PUSH1 0xB DUP5 LT AND OR ISZERO PUSH2 0x6F7 JUMPI DUP3 DUP3 EXP SWAP1 POP DUP4 DUP2 GT ISZERO PUSH2 0x6F2 JUMPI PUSH2 0x6F1 PUSH2 0x49C JUMP JUMPDEST JUMPDEST PUSH2 0x721 JUMP JUMPDEST PUSH2 0x704 DUP5 DUP5 DUP5 PUSH1 0x1 PUSH2 0x602 JUMP JUMPDEST SWAP3 POP SWAP1 POP DUP2 DUP5 DIV DUP2 GT ISZERO PUSH2 0x71B JUMPI PUSH2 0x71A PUSH2 0x49C JUMP JUMPDEST JUMPDEST DUP2 DUP2 MUL SWAP1 POP JUMPDEST SWAP4 SWAP3 POP POP POP JUMP JUMPDEST PUSH1 0x0 PUSH2 0x733 DUP3 PUSH2 0x463 JUMP JUMPDEST SWAP2 POP PUSH2 0x73E DUP4 PUSH2 0x58F JUMP JUMPDEST SWAP3 POP PUSH2 0x76B PUSH32 0xFFFFFFFFFFFFFFFFFFFFFFFFFFFFFFFFFFFFFFFFFFFFFFFFFFFFFFFFFFFFFFFF DUP5 DUP5 PUSH2 0x655 JUMP JUMPDEST SWAP1 POP SWAP3 SWAP2 POP POP JUMP JUMPDEST PUSH2 0x77C DUP2 PUSH2 0x463 JUMP JUMPDEST DUP3 MSTORE POP POP JUMP JUMPDEST PUSH1 0x0 PUSH1 0x60 DUP3 ADD SWAP1 POP PUSH2 0x797 PUSH1 0x0 DUP4 ADD DUP7 PUSH2 0x342 JUMP JUMPDEST PUSH2 0x7A4 PUSH1 0x20 DUP4 ADD DUP6 PUSH2 0x342 JUMP JUMPDEST PUSH2 0x7B1 PUSH1 0x40 DUP4 ADD DUP5 PUSH2 0x773 JUMP JUMPDEST SWAP5 SWAP4 POP POP POP POP JUMP JUMPDEST PUSH1 0x0 DUP2 ISZERO ISZERO SWAP1 POP SWAP2 SWAP1 POP JUMP JUMPDEST PUSH2 0x7CE DUP2 PUSH2 0x7B9 JUMP JUMPDEST DUP2 EQ PUSH2 0x7D9 JUMPI PUSH1 0x0 DUP1 REVERT JUMPDEST POP JUMP JUMPDEST PUSH1 0x0 DUP2 MLOAD SWAP1 POP PUSH2 0x7EB DUP2 PUSH2 0x7C5 JUMP JUMPDEST SWAP3 SWAP2 POP POP JUMP JUMPDEST PUSH1 0x0 PUSH1 0x20 DUP3 DUP5 SUB SLT ISZERO PUSH2 0x807 JUMPI PUSH2 0x806 PUSH2 0x58A JUMP JUMPDEST JUMPDEST PUSH1 0x0 PUSH2 0x815 DUP5 DUP3 DUP6 ADD PUSH2 0x7DC JUMP JUMPDEST SWAP2 POP POP SWAP3 SWAP2 POP POP JUMP INVALID LOG2 PUSH5 0x6970667358 0x22 SLT KECCAK256 PUSH5 0x463F5F58C3 GASLIMIT NUMBER PUSH23 0x865DB9055DDC6227A71E8715FC3DFBA5FDB12766357E6D PUSH5 0x736F6C6343 STOP ADDMOD LT STOP CALLER "
				},
				"gasEstimates": {
					"creation": {
						"codeDepositCost": "426400",
						"executionCost": "infinite",
						"totalCost": "infinite"
					},
					"external": {
						"purchaseCoffee()": "infinite",
						"token()": "infinite",
						"tokenOwner()": "2492"
					}
				},
				"methodIdentifiers": {
					"purchaseCoffee()": "dfa5a25d",
					"token()": "fc0c546a",
					"tokenOwner()": "a3e67610"
				}
			},
			"storageLayout": {
				"storage": [
					{
						"astId": 21,
						"contract": "contracts/SampleTokenSale.sol:TokenSale",
						"label": "tokenPriceInWie",
						"offset": 0,
						"slot": "0",
						"type": "t_uint256"
					},
					{
						"astId": 24,
						"contract": "contracts/SampleTokenSale.sol:TokenSale",
						"label": "token",
						"offset": 0,
						"slot": "1",
						"type": "t_contract(ERC20)18"
					},
					{
						"astId": 26,
						"contract": "contracts/SampleTokenSale.sol:TokenSale",
						"label": "tokenOwner",
						"offset": 0,
						"slot": "2",
						"type": "t_address"
					}
				],
				"types": {
					"t_address": {
						"encoding": "inplace",
						"label": "address",
						"numberOfBytes": "20"
					},
					"t_contract(ERC20)18": {
						"encoding": "inplace",
						"label": "contract ERC20",
						"numberOfBytes": "20"
					},
					"t_uint256": {
						"encoding": "inplace",
						"label": "uint256",
						"numberOfBytes": "32"
					}
				}
			},
			"userdoc": {
				"kind": "user",
				"methods": {},
				"version": 1
			}
		}
	}
}