{
	"contracts/ExampleModifiers.sol": {
		"InheritanceModifierExample": {
			"abi": [
				{
					"inputs": [],
					"stateMutability": "nonpayable",
					"type": "constructor"
				},
				{
					"inputs": [],
					"name": "burnToken",
					"outputs": [],
					"stateMutability": "nonpayable",
					"type": "function"
				},
				{
					"inputs": [],
					"name": "createNewToken",
					"outputs": [],
					"stateMutability": "nonpayable",
					"type": "function"
				},
				{
					"inputs": [],
					"name": "purchaseToken",
					"outputs": [],
					"stateMutability": "payable",
					"type": "function"
				},
				{
					"inputs": [
						{
							"internalType": "address",
							"name": "_to",
							"type": "address"
						},
						{
							"internalType": "uint256",
							"name": "_amount",
							"type": "uint256"
						}
					],
					"name": "sendToken",
					"outputs": [],
					"stateMutability": "nonpayable",
					"type": "function"
				},
				{
					"inputs": [
						{
							"internalType": "address",
							"name": "",
							"type": "address"
						}
					],
					"name": "tokenBalance",
					"outputs": [
						{
							"internalType": "uint256",
							"name": "",
							"type": "uint256"
						}
					],
					"stateMutability": "view",
					"type": "function"
				}
			],
			"devdoc": {
				"kind": "dev",
				"methods": {},
				"version": 1
			},
			"evm": {
				"assembly": "    /* \"contracts/ExampleModifiers.sol\":96:931  contract InheritanceModifierExample is Owner{... */\n  mstore(0x40, 0x80)\n    /* \"contracts/ExampleModifiers.sol\":216:223  1 ether */\n  0x0de0b6b3a7640000\n    /* \"contracts/ExampleModifiers.sol\":198:223  uint tokenPrice = 1 ether */\n  0x02\n  sstore\n    /* \"contracts/ExampleModifiers.sol\":230:291  constructor() {... */\n  callvalue\n  dup1\n  iszero\n  tag_1\n  jumpi\n  0x00\n  dup1\n  revert\ntag_1:\n  pop\n    /* \"contracts/Ownable.sol\":144:154  msg.sender */\n  caller\n    /* \"contracts/Ownable.sol\":136:141  owner */\n  0x00\n  dup1\n    /* \"contracts/Ownable.sol\":136:154  owner = msg.sender */\n  0x0100\n  exp\n  dup2\n  sload\n  dup2\n  0xffffffffffffffffffffffffffffffffffffffff\n  mul\n  not\n  and\n  swap1\n  dup4\n  0xffffffffffffffffffffffffffffffffffffffff\n  and\n  mul\n  or\n  swap1\n  sstore\n  pop\n    /* \"contracts/ExampleModifiers.sol\":281:284  100 */\n  0x64\n    /* \"contracts/ExampleModifiers.sol\":254:266  tokenBalance */\n  0x01\n    /* \"contracts/ExampleModifiers.sol\":254:278  tokenBalance[msg.sender] */\n  0x00\n    /* \"contracts/ExampleModifiers.sol\":267:277  msg.sender */\n  caller\n    /* \"contracts/ExampleModifiers.sol\":254:278  tokenBalance[msg.sender] */\n  0xffffffffffffffffffffffffffffffffffffffff\n  and\n  0xffffffffffffffffffffffffffffffffffffffff\n  and\n  dup2\n  mstore\n  0x20\n  add\n  swap1\n  dup2\n  mstore\n  0x20\n  add\n  0x00\n  keccak256\n    /* \"contracts/ExampleModifiers.sol\":254:284  tokenBalance[msg.sender] = 100 */\n  dup2\n  swap1\n  sstore\n  pop\n    /* \"contracts/ExampleModifiers.sol\":96:931  contract InheritanceModifierExample is Owner{... */\n  dataSize(sub_0)\n  dup1\n  dataOffset(sub_0)\n  0x00\n  codecopy\n  0x00\n  return\nstop\n\nsub_0: assembly {\n        /* \"contracts/ExampleModifiers.sol\":96:931  contract InheritanceModifierExample is Owner{... */\n      mstore(0x40, 0x80)\n      jumpi(tag_1, lt(calldatasize, 0x04))\n      shr(0xe0, calldataload(0x00))\n      dup1\n      0x412664ae\n      eq\n      tag_2\n      jumpi\n      dup1\n      0x754fc38c\n      eq\n      tag_3\n      jumpi\n      dup1\n      0xa95c4d62\n      eq\n      tag_4\n      jumpi\n      dup1\n      0xeedc966a\n      eq\n      tag_5\n      jumpi\n      dup1\n      0xfaa0a264\n      eq\n      tag_6\n      jumpi\n    tag_1:\n      0x00\n      dup1\n      revert\n        /* \"contracts/ExampleModifiers.sol\":711:929  function sendToken(address _to, uint _amount) public {... */\n    tag_2:\n      callvalue\n      dup1\n      iszero\n      tag_7\n      jumpi\n      0x00\n      dup1\n      revert\n    tag_7:\n      pop\n      tag_8\n      0x04\n      dup1\n      calldatasize\n      sub\n      dup2\n      add\n      swap1\n      tag_9\n      swap2\n      swap1\n      tag_10\n      jump\t// in\n    tag_9:\n      tag_11\n      jump\t// in\n    tag_8:\n      stop\n        /* \"contracts/ExampleModifiers.sol\":302:382  function createNewToken() public onlyOwner{... */\n    tag_3:\n      callvalue\n      dup1\n      iszero\n      tag_12\n      jumpi\n      0x00\n      dup1\n      revert\n    tag_12:\n      pop\n      tag_13\n      tag_14\n      jump\t// in\n    tag_13:\n      stop\n        /* \"contracts/ExampleModifiers.sol\":460:705  function purchaseToken() public payable{... */\n    tag_4:\n      tag_15\n      tag_16\n      jump\t// in\n    tag_15:\n      stop\n        /* \"contracts/ExampleModifiers.sol\":147:191  mapping(address => uint) public tokenBalance */\n    tag_5:\n      callvalue\n      dup1\n      iszero\n      tag_17\n      jumpi\n      0x00\n      dup1\n      revert\n    tag_17:\n      pop\n      tag_18\n      0x04\n      dup1\n      calldatasize\n      sub\n      dup2\n      add\n      swap1\n      tag_19\n      swap2\n      swap1\n      tag_20\n      jump\t// in\n    tag_19:\n      tag_21\n      jump\t// in\n    tag_18:\n      mload(0x40)\n      tag_22\n      swap2\n      swap1\n      tag_23\n      jump\t// in\n    tag_22:\n      mload(0x40)\n      dup1\n      swap2\n      sub\n      swap1\n      return\n        /* \"contracts/ExampleModifiers.sol\":388:454  function burnToken() public {... */\n    tag_6:\n      callvalue\n      dup1\n      iszero\n      tag_24\n      jumpi\n      0x00\n      dup1\n      revert\n    tag_24:\n      pop\n      tag_25\n      tag_26\n      jump\t// in\n    tag_25:\n      stop\n        /* \"contracts/ExampleModifiers.sol\":711:929  function sendToken(address _to, uint _amount) public {... */\n    tag_11:\n        /* \"contracts/ExampleModifiers.sol\":810:817  _amount */\n      dup1\n        /* \"contracts/ExampleModifiers.sol\":782:794  tokenBalance */\n      0x01\n        /* \"contracts/ExampleModifiers.sol\":782:806  tokenBalance[msg.sender] */\n      0x00\n        /* \"contracts/ExampleModifiers.sol\":795:805  msg.sender */\n      caller\n        /* \"contracts/ExampleModifiers.sol\":782:806  tokenBalance[msg.sender] */\n      0xffffffffffffffffffffffffffffffffffffffff\n      and\n      0xffffffffffffffffffffffffffffffffffffffff\n      and\n      dup2\n      mstore\n      0x20\n      add\n      swap1\n      dup2\n      mstore\n      0x20\n      add\n      0x00\n      keccak256\n      sload\n        /* \"contracts/ExampleModifiers.sol\":782:817  tokenBalance[msg.sender] >= _amount */\n      lt\n      iszero\n        /* \"contracts/ExampleModifiers.sol\":774:839  require(tokenBalance[msg.sender] >= _amount, \"Not enough tokens\") */\n      tag_28\n      jumpi\n      mload(0x40)\n      0x08c379a000000000000000000000000000000000000000000000000000000000\n      dup2\n      mstore\n      0x04\n      add\n      tag_29\n      swap1\n      tag_30\n      jump\t// in\n    tag_29:\n      mload(0x40)\n      dup1\n      swap2\n      sub\n      swap1\n      revert\n    tag_28:\n        /* \"contracts/ExampleModifiers.sol\":877:884  _amount */\n      dup1\n        /* \"contracts/ExampleModifiers.sol\":849:861  tokenBalance */\n      0x01\n        /* \"contracts/ExampleModifiers.sol\":849:873  tokenBalance[msg.sender] */\n      0x00\n        /* \"contracts/ExampleModifiers.sol\":862:872  msg.sender */\n      caller\n        /* \"contracts/ExampleModifiers.sol\":849:873  tokenBalance[msg.sender] */\n      0xffffffffffffffffffffffffffffffffffffffff\n      and\n      0xffffffffffffffffffffffffffffffffffffffff\n      and\n      dup2\n      mstore\n      0x20\n      add\n      swap1\n      dup2\n      mstore\n      0x20\n      add\n      0x00\n      keccak256\n      0x00\n        /* \"contracts/ExampleModifiers.sol\":849:884  tokenBalance[msg.sender] -= _amount */\n      dup3\n      dup3\n      sload\n      tag_31\n      swap2\n      swap1\n      tag_32\n      jump\t// in\n    tag_31:\n      swap3\n      pop\n      pop\n      dup2\n      swap1\n      sstore\n      pop\n        /* \"contracts/ExampleModifiers.sol\":915:922  _amount */\n      dup1\n        /* \"contracts/ExampleModifiers.sol\":894:906  tokenBalance */\n      0x01\n        /* \"contracts/ExampleModifiers.sol\":894:911  tokenBalance[_to] */\n      0x00\n        /* \"contracts/ExampleModifiers.sol\":907:910  _to */\n      dup5\n        /* \"contracts/ExampleModifiers.sol\":894:911  tokenBalance[_to] */\n      0xffffffffffffffffffffffffffffffffffffffff\n      and\n      0xffffffffffffffffffffffffffffffffffffffff\n      and\n      dup2\n      mstore\n      0x20\n      add\n      swap1\n      dup2\n      mstore\n      0x20\n      add\n      0x00\n      keccak256\n      0x00\n        /* \"contracts/ExampleModifiers.sol\":894:922  tokenBalance[_to] += _amount */\n      dup3\n      dup3\n      sload\n      tag_33\n      swap2\n      swap1\n      tag_34\n      jump\t// in\n    tag_33:\n      swap3\n      pop\n      pop\n      dup2\n      swap1\n      sstore\n      pop\n        /* \"contracts/ExampleModifiers.sol\":711:929  function sendToken(address _to, uint _amount) public {... */\n      pop\n      pop\n      jump\t// out\n        /* \"contracts/ExampleModifiers.sol\":302:382  function createNewToken() public onlyOwner{... */\n    tag_14:\n        /* \"contracts/Ownable.sol\":218:223  owner */\n      0x00\n      dup1\n      sload\n      swap1\n      0x0100\n      exp\n      swap1\n      div\n      0xffffffffffffffffffffffffffffffffffffffff\n      and\n        /* \"contracts/Ownable.sol\":204:223  msg.sender == owner */\n      0xffffffffffffffffffffffffffffffffffffffff\n      and\n        /* \"contracts/Ownable.sol\":204:214  msg.sender */\n      caller\n        /* \"contracts/Ownable.sol\":204:223  msg.sender == owner */\n      0xffffffffffffffffffffffffffffffffffffffff\n      and\n      eq\n        /* \"contracts/Ownable.sol\":196:247  require(msg.sender == owner, \"You are not allowed\") */\n      tag_36\n      jumpi\n      mload(0x40)\n      0x08c379a000000000000000000000000000000000000000000000000000000000\n      dup2\n      mstore\n      0x04\n      add\n      tag_37\n      swap1\n      tag_38\n      jump\t// in\n    tag_37:\n      mload(0x40)\n      dup1\n      swap2\n      sub\n      swap1\n      revert\n    tag_36:\n        /* \"contracts/ExampleModifiers.sol\":354:366  tokenBalance */\n      0x01\n        /* \"contracts/ExampleModifiers.sol\":354:373  tokenBalance[owner] */\n      0x00\n        /* \"contracts/ExampleModifiers.sol\":367:372  owner */\n      dup1\n      0x00\n      swap1\n      sload\n      swap1\n      0x0100\n      exp\n      swap1\n      div\n      0xffffffffffffffffffffffffffffffffffffffff\n      and\n        /* \"contracts/ExampleModifiers.sol\":354:373  tokenBalance[owner] */\n      0xffffffffffffffffffffffffffffffffffffffff\n      and\n      0xffffffffffffffffffffffffffffffffffffffff\n      and\n      dup2\n      mstore\n      0x20\n      add\n      swap1\n      dup2\n      mstore\n      0x20\n      add\n      0x00\n      keccak256\n      0x00\n        /* \"contracts/ExampleModifiers.sol\":354:375  tokenBalance[owner]++ */\n      dup2\n      sload\n      dup1\n      swap3\n      swap2\n      swap1\n      tag_40\n      swap1\n      tag_41\n      jump\t// in\n    tag_40:\n      swap2\n      swap1\n      pop\n      sstore\n      pop\n        /* \"contracts/ExampleModifiers.sol\":302:382  function createNewToken() public onlyOwner{... */\n      jump\t// out\n        /* \"contracts/ExampleModifiers.sol\":460:705  function purchaseToken() public payable{... */\n    tag_16:\n        /* \"contracts/ExampleModifiers.sol\":564:565  0 */\n      0x00\n        /* \"contracts/ExampleModifiers.sol\":552:561  msg.value */\n      callvalue\n        /* \"contracts/ExampleModifiers.sol\":540:550  tokenPrice */\n      sload(0x02)\n        /* \"contracts/ExampleModifiers.sol\":518:530  tokenBalance */\n      0x01\n        /* \"contracts/ExampleModifiers.sol\":518:537  tokenBalance[owner] */\n      0x00\n        /* \"contracts/ExampleModifiers.sol\":531:536  owner */\n      dup1\n      0x00\n      swap1\n      sload\n      swap1\n      0x0100\n      exp\n      swap1\n      div\n      0xffffffffffffffffffffffffffffffffffffffff\n      and\n        /* \"contracts/ExampleModifiers.sol\":518:537  tokenBalance[owner] */\n      0xffffffffffffffffffffffffffffffffffffffff\n      and\n      0xffffffffffffffffffffffffffffffffffffffff\n      and\n      dup2\n      mstore\n      0x20\n      add\n      swap1\n      dup2\n      mstore\n      0x20\n      add\n      0x00\n      keccak256\n      sload\n        /* \"contracts/ExampleModifiers.sol\":518:550  tokenBalance[owner] * tokenPrice */\n      tag_43\n      swap2\n      swap1\n      tag_44\n      jump\t// in\n    tag_43:\n        /* \"contracts/ExampleModifiers.sol\":517:561  (tokenBalance[owner] * tokenPrice)/msg.value */\n      tag_45\n      swap2\n      swap1\n      tag_46\n      jump\t// in\n    tag_45:\n        /* \"contracts/ExampleModifiers.sol\":517:565  (tokenBalance[owner] * tokenPrice)/msg.value > 0 */\n      gt\n        /* \"contracts/ExampleModifiers.sol\":509:587  require((tokenBalance[owner] * tokenPrice)/msg.value > 0, \"Not enough tokens\") */\n      tag_47\n      jumpi\n      mload(0x40)\n      0x08c379a000000000000000000000000000000000000000000000000000000000\n      dup2\n      mstore\n      0x04\n      add\n      tag_48\n      swap1\n      tag_30\n      jump\t// in\n    tag_48:\n      mload(0x40)\n      dup1\n      swap2\n      sub\n      swap1\n      revert\n    tag_47:\n        /* \"contracts/ExampleModifiers.sol\":630:640  tokenPrice */\n      sload(0x02)\n        /* \"contracts/ExampleModifiers.sol\":620:629  msg.value */\n      callvalue\n        /* \"contracts/ExampleModifiers.sol\":620:640  msg.value/tokenPrice */\n      tag_49\n      swap2\n      swap1\n      tag_46\n      jump\t// in\n    tag_49:\n        /* \"contracts/ExampleModifiers.sol\":597:609  tokenBalance */\n      0x01\n        /* \"contracts/ExampleModifiers.sol\":597:616  tokenBalance[owner] */\n      0x00\n        /* \"contracts/ExampleModifiers.sol\":610:615  owner */\n      dup1\n      0x00\n      swap1\n      sload\n      swap1\n      0x0100\n      exp\n      swap1\n      div\n      0xffffffffffffffffffffffffffffffffffffffff\n      and\n        /* \"contracts/ExampleModifiers.sol\":597:616  tokenBalance[owner] */\n      0xffffffffffffffffffffffffffffffffffffffff\n      and\n      0xffffffffffffffffffffffffffffffffffffffff\n      and\n      dup2\n      mstore\n      0x20\n      add\n      swap1\n      dup2\n      mstore\n      0x20\n      add\n      0x00\n      keccak256\n      0x00\n        /* \"contracts/ExampleModifiers.sol\":597:640  tokenBalance[owner] -= msg.value/tokenPrice */\n      dup3\n      dup3\n      sload\n      tag_50\n      swap2\n      swap1\n      tag_32\n      jump\t// in\n    tag_50:\n      swap3\n      pop\n      pop\n      dup2\n      swap1\n      sstore\n      pop\n        /* \"contracts/ExampleModifiers.sol\":688:698  tokenPrice */\n      sload(0x02)\n        /* \"contracts/ExampleModifiers.sol\":678:687  msg.value */\n      callvalue\n        /* \"contracts/ExampleModifiers.sol\":678:698  msg.value/tokenPrice */\n      tag_51\n      swap2\n      swap1\n      tag_46\n      jump\t// in\n    tag_51:\n        /* \"contracts/ExampleModifiers.sol\":650:662  tokenBalance */\n      0x01\n        /* \"contracts/ExampleModifiers.sol\":650:674  tokenBalance[msg.sender] */\n      0x00\n        /* \"contracts/ExampleModifiers.sol\":663:673  msg.sender */\n      caller\n        /* \"contracts/ExampleModifiers.sol\":650:674  tokenBalance[msg.sender] */\n      0xffffffffffffffffffffffffffffffffffffffff\n      and\n      0xffffffffffffffffffffffffffffffffffffffff\n      and\n      dup2\n      mstore\n      0x20\n      add\n      swap1\n      dup2\n      mstore\n      0x20\n      add\n      0x00\n      keccak256\n      0x00\n        /* \"contracts/ExampleModifiers.sol\":650:698  tokenBalance[msg.sender] += msg.value/tokenPrice */\n      dup3\n      dup3\n      sload\n      tag_52\n      swap2\n      swap1\n      tag_34\n      jump\t// in\n    tag_52:\n      swap3\n      pop\n      pop\n      dup2\n      swap1\n      sstore\n      pop\n        /* \"contracts/ExampleModifiers.sol\":460:705  function purchaseToken() public payable{... */\n      jump\t// out\n        /* \"contracts/ExampleModifiers.sol\":147:191  mapping(address => uint) public tokenBalance */\n    tag_21:\n      mstore(0x20, 0x01)\n      dup1\n      0x00\n      mstore\n      keccak256(0x00, 0x40)\n      0x00\n      swap2\n      pop\n      swap1\n      pop\n      sload\n      dup2\n      jump\t// out\n        /* \"contracts/ExampleModifiers.sol\":388:454  function burnToken() public {... */\n    tag_26:\n        /* \"contracts/ExampleModifiers.sol\":426:438  tokenBalance */\n      0x01\n        /* \"contracts/ExampleModifiers.sol\":426:445  tokenBalance[owner] */\n      0x00\n        /* \"contracts/ExampleModifiers.sol\":439:444  owner */\n      dup1\n      0x00\n      swap1\n      sload\n      swap1\n      0x0100\n      exp\n      swap1\n      div\n      0xffffffffffffffffffffffffffffffffffffffff\n      and\n        /* \"contracts/ExampleModifiers.sol\":426:445  tokenBalance[owner] */\n      0xffffffffffffffffffffffffffffffffffffffff\n      and\n      0xffffffffffffffffffffffffffffffffffffffff\n      and\n      dup2\n      mstore\n      0x20\n      add\n      swap1\n      dup2\n      mstore\n      0x20\n      add\n      0x00\n      keccak256\n      0x00\n        /* \"contracts/ExampleModifiers.sol\":426:447  tokenBalance[owner]-- */\n      dup2\n      sload\n      dup1\n      swap3\n      swap2\n      swap1\n      tag_54\n      swap1\n      tag_55\n      jump\t// in\n    tag_54:\n      swap2\n      swap1\n      pop\n      sstore\n      pop\n        /* \"contracts/ExampleModifiers.sol\":388:454  function burnToken() public {... */\n      jump\t// out\n        /* \"#utility.yul\":88:205   */\n    tag_57:\n        /* \"#utility.yul\":197:198   */\n      0x00\n        /* \"#utility.yul\":194:195   */\n      dup1\n        /* \"#utility.yul\":187:199   */\n      revert\n        /* \"#utility.yul\":334:460   */\n    tag_59:\n        /* \"#utility.yul\":371:378   */\n      0x00\n        /* \"#utility.yul\":411:453   */\n      0xffffffffffffffffffffffffffffffffffffffff\n        /* \"#utility.yul\":404:409   */\n      dup3\n        /* \"#utility.yul\":400:454   */\n      and\n        /* \"#utility.yul\":389:454   */\n      swap1\n      pop\n        /* \"#utility.yul\":334:460   */\n      swap2\n      swap1\n      pop\n      jump\t// out\n        /* \"#utility.yul\":466:562   */\n    tag_60:\n        /* \"#utility.yul\":503:510   */\n      0x00\n        /* \"#utility.yul\":532:556   */\n      tag_80\n        /* \"#utility.yul\":550:555   */\n      dup3\n        /* \"#utility.yul\":532:556   */\n      tag_59\n      jump\t// in\n    tag_80:\n        /* \"#utility.yul\":521:556   */\n      swap1\n      pop\n        /* \"#utility.yul\":466:562   */\n      swap2\n      swap1\n      pop\n      jump\t// out\n        /* \"#utility.yul\":568:690   */\n    tag_61:\n        /* \"#utility.yul\":641:665   */\n      tag_82\n        /* \"#utility.yul\":659:664   */\n      dup2\n        /* \"#utility.yul\":641:665   */\n      tag_60\n      jump\t// in\n    tag_82:\n        /* \"#utility.yul\":634:639   */\n      dup2\n        /* \"#utility.yul\":631:666   */\n      eq\n        /* \"#utility.yul\":621:684   */\n      tag_83\n      jumpi\n        /* \"#utility.yul\":680:681   */\n      0x00\n        /* \"#utility.yul\":677:678   */\n      dup1\n        /* \"#utility.yul\":670:682   */\n      revert\n        /* \"#utility.yul\":621:684   */\n    tag_83:\n        /* \"#utility.yul\":568:690   */\n      pop\n      jump\t// out\n        /* \"#utility.yul\":696:835   */\n    tag_62:\n        /* \"#utility.yul\":742:747   */\n      0x00\n        /* \"#utility.yul\":780:786   */\n      dup2\n        /* \"#utility.yul\":767:787   */\n      calldataload\n        /* \"#utility.yul\":758:787   */\n      swap1\n      pop\n        /* \"#utility.yul\":796:829   */\n      tag_85\n        /* \"#utility.yul\":823:828   */\n      dup2\n        /* \"#utility.yul\":796:829   */\n      tag_61\n      jump\t// in\n    tag_85:\n        /* \"#utility.yul\":696:835   */\n      swap3\n      swap2\n      pop\n      pop\n      jump\t// out\n        /* \"#utility.yul\":841:918   */\n    tag_63:\n        /* \"#utility.yul\":878:885   */\n      0x00\n        /* \"#utility.yul\":907:912   */\n      dup2\n        /* \"#utility.yul\":896:912   */\n      swap1\n      pop\n        /* \"#utility.yul\":841:918   */\n      swap2\n      swap1\n      pop\n      jump\t// out\n        /* \"#utility.yul\":924:1046   */\n    tag_64:\n        /* \"#utility.yul\":997:1021   */\n      tag_88\n        /* \"#utility.yul\":1015:1020   */\n      dup2\n        /* \"#utility.yul\":997:1021   */\n      tag_63\n      jump\t// in\n    tag_88:\n        /* \"#utility.yul\":990:995   */\n      dup2\n        /* \"#utility.yul\":987:1022   */\n      eq\n        /* \"#utility.yul\":977:1040   */\n      tag_89\n      jumpi\n        /* \"#utility.yul\":1036:1037   */\n      0x00\n        /* \"#utility.yul\":1033:1034   */\n      dup1\n        /* \"#utility.yul\":1026:1038   */\n      revert\n        /* \"#utility.yul\":977:1040   */\n    tag_89:\n        /* \"#utility.yul\":924:1046   */\n      pop\n      jump\t// out\n        /* \"#utility.yul\":1052:1191   */\n    tag_65:\n        /* \"#utility.yul\":1098:1103   */\n      0x00\n        /* \"#utility.yul\":1136:1142   */\n      dup2\n        /* \"#utility.yul\":1123:1143   */\n      calldataload\n        /* \"#utility.yul\":1114:1143   */\n      swap1\n      pop\n        /* \"#utility.yul\":1152:1185   */\n      tag_91\n        /* \"#utility.yul\":1179:1184   */\n      dup2\n        /* \"#utility.yul\":1152:1185   */\n      tag_64\n      jump\t// in\n    tag_91:\n        /* \"#utility.yul\":1052:1191   */\n      swap3\n      swap2\n      pop\n      pop\n      jump\t// out\n        /* \"#utility.yul\":1197:1671   */\n    tag_10:\n        /* \"#utility.yul\":1265:1271   */\n      0x00\n        /* \"#utility.yul\":1273:1279   */\n      dup1\n        /* \"#utility.yul\":1322:1324   */\n      0x40\n        /* \"#utility.yul\":1310:1319   */\n      dup4\n        /* \"#utility.yul\":1301:1308   */\n      dup6\n        /* \"#utility.yul\":1297:1320   */\n      sub\n        /* \"#utility.yul\":1293:1325   */\n      slt\n        /* \"#utility.yul\":1290:1409   */\n      iszero\n      tag_93\n      jumpi\n        /* \"#utility.yul\":1328:1407   */\n      tag_94\n      tag_57\n      jump\t// in\n    tag_94:\n        /* \"#utility.yul\":1290:1409   */\n    tag_93:\n        /* \"#utility.yul\":1448:1449   */\n      0x00\n        /* \"#utility.yul\":1473:1526   */\n      tag_95\n        /* \"#utility.yul\":1518:1525   */\n      dup6\n        /* \"#utility.yul\":1509:1515   */\n      dup3\n        /* \"#utility.yul\":1498:1507   */\n      dup7\n        /* \"#utility.yul\":1494:1516   */\n      add\n        /* \"#utility.yul\":1473:1526   */\n      tag_62\n      jump\t// in\n    tag_95:\n        /* \"#utility.yul\":1463:1526   */\n      swap3\n      pop\n        /* \"#utility.yul\":1419:1536   */\n      pop\n        /* \"#utility.yul\":1575:1577   */\n      0x20\n        /* \"#utility.yul\":1601:1654   */\n      tag_96\n        /* \"#utility.yul\":1646:1653   */\n      dup6\n        /* \"#utility.yul\":1637:1643   */\n      dup3\n        /* \"#utility.yul\":1626:1635   */\n      dup7\n        /* \"#utility.yul\":1622:1644   */\n      add\n        /* \"#utility.yul\":1601:1654   */\n      tag_65\n      jump\t// in\n    tag_96:\n        /* \"#utility.yul\":1591:1654   */\n      swap2\n      pop\n        /* \"#utility.yul\":1546:1664   */\n      pop\n        /* \"#utility.yul\":1197:1671   */\n      swap3\n      pop\n      swap3\n      swap1\n      pop\n      jump\t// out\n        /* \"#utility.yul\":1677:2006   */\n    tag_20:\n        /* \"#utility.yul\":1736:1742   */\n      0x00\n        /* \"#utility.yul\":1785:1787   */\n      0x20\n        /* \"#utility.yul\":1773:1782   */\n      dup3\n        /* \"#utility.yul\":1764:1771   */\n      dup5\n        /* \"#utility.yul\":1760:1783   */\n      sub\n        /* \"#utility.yul\":1756:1788   */\n      slt\n        /* \"#utility.yul\":1753:1872   */\n      iszero\n      tag_98\n      jumpi\n        /* \"#utility.yul\":1791:1870   */\n      tag_99\n      tag_57\n      jump\t// in\n    tag_99:\n        /* \"#utility.yul\":1753:1872   */\n    tag_98:\n        /* \"#utility.yul\":1911:1912   */\n      0x00\n        /* \"#utility.yul\":1936:1989   */\n      tag_100\n        /* \"#utility.yul\":1981:1988   */\n      dup5\n        /* \"#utility.yul\":1972:1978   */\n      dup3\n        /* \"#utility.yul\":1961:1970   */\n      dup6\n        /* \"#utility.yul\":1957:1979   */\n      add\n        /* \"#utility.yul\":1936:1989   */\n      tag_62\n      jump\t// in\n    tag_100:\n        /* \"#utility.yul\":1926:1989   */\n      swap2\n      pop\n        /* \"#utility.yul\":1882:1999   */\n      pop\n        /* \"#utility.yul\":1677:2006   */\n      swap3\n      swap2\n      pop\n      pop\n      jump\t// out\n        /* \"#utility.yul\":2012:2130   */\n    tag_66:\n        /* \"#utility.yul\":2099:2123   */\n      tag_102\n        /* \"#utility.yul\":2117:2122   */\n      dup2\n        /* \"#utility.yul\":2099:2123   */\n      tag_63\n      jump\t// in\n    tag_102:\n        /* \"#utility.yul\":2094:2097   */\n      dup3\n        /* \"#utility.yul\":2087:2124   */\n      mstore\n        /* \"#utility.yul\":2012:2130   */\n      pop\n      pop\n      jump\t// out\n        /* \"#utility.yul\":2136:2358   */\n    tag_23:\n        /* \"#utility.yul\":2229:2233   */\n      0x00\n        /* \"#utility.yul\":2267:2269   */\n      0x20\n        /* \"#utility.yul\":2256:2265   */\n      dup3\n        /* \"#utility.yul\":2252:2270   */\n      add\n        /* \"#utility.yul\":2244:2270   */\n      swap1\n      pop\n        /* \"#utility.yul\":2280:2351   */\n      tag_104\n        /* \"#utility.yul\":2348:2349   */\n      0x00\n        /* \"#utility.yul\":2337:2346   */\n      dup4\n        /* \"#utility.yul\":2333:2350   */\n      add\n        /* \"#utility.yul\":2324:2330   */\n      dup5\n        /* \"#utility.yul\":2280:2351   */\n      tag_66\n      jump\t// in\n    tag_104:\n        /* \"#utility.yul\":2136:2358   */\n      swap3\n      swap2\n      pop\n      pop\n      jump\t// out\n        /* \"#utility.yul\":2364:2533   */\n    tag_67:\n        /* \"#utility.yul\":2448:2459   */\n      0x00\n        /* \"#utility.yul\":2482:2488   */\n      dup3\n        /* \"#utility.yul\":2477:2480   */\n      dup3\n        /* \"#utility.yul\":2470:2489   */\n      mstore\n        /* \"#utility.yul\":2522:2526   */\n      0x20\n        /* \"#utility.yul\":2517:2520   */\n      dup3\n        /* \"#utility.yul\":2513:2527   */\n      add\n        /* \"#utility.yul\":2498:2527   */\n      swap1\n      pop\n        /* \"#utility.yul\":2364:2533   */\n      swap3\n      swap2\n      pop\n      pop\n      jump\t// out\n        /* \"#utility.yul\":2539:2706   */\n    tag_68:\n        /* \"#utility.yul\":2679:2698   */\n      0x4e6f7420656e6f75676820746f6b656e73000000000000000000000000000000\n        /* \"#utility.yul\":2675:2676   */\n      0x00\n        /* \"#utility.yul\":2667:2673   */\n      dup3\n        /* \"#utility.yul\":2663:2677   */\n      add\n        /* \"#utility.yul\":2656:2699   */\n      mstore\n        /* \"#utility.yul\":2539:2706   */\n      pop\n      jump\t// out\n        /* \"#utility.yul\":2712:3078   */\n    tag_69:\n        /* \"#utility.yul\":2854:2857   */\n      0x00\n        /* \"#utility.yul\":2875:2942   */\n      tag_108\n        /* \"#utility.yul\":2939:2941   */\n      0x11\n        /* \"#utility.yul\":2934:2937   */\n      dup4\n        /* \"#utility.yul\":2875:2942   */\n      tag_67\n      jump\t// in\n    tag_108:\n        /* \"#utility.yul\":2868:2942   */\n      swap2\n      pop\n        /* \"#utility.yul\":2951:3044   */\n      tag_109\n        /* \"#utility.yul\":3040:3043   */\n      dup3\n        /* \"#utility.yul\":2951:3044   */\n      tag_68\n      jump\t// in\n    tag_109:\n        /* \"#utility.yul\":3069:3071   */\n      0x20\n        /* \"#utility.yul\":3064:3067   */\n      dup3\n        /* \"#utility.yul\":3060:3072   */\n      add\n        /* \"#utility.yul\":3053:3072   */\n      swap1\n      pop\n        /* \"#utility.yul\":2712:3078   */\n      swap2\n      swap1\n      pop\n      jump\t// out\n        /* \"#utility.yul\":3084:3503   */\n    tag_30:\n        /* \"#utility.yul\":3250:3254   */\n      0x00\n        /* \"#utility.yul\":3288:3290   */\n      0x20\n        /* \"#utility.yul\":3277:3286   */\n      dup3\n        /* \"#utility.yul\":3273:3291   */\n      add\n        /* \"#utility.yul\":3265:3291   */\n      swap1\n      pop\n        /* \"#utility.yul\":3337:3346   */\n      dup2\n        /* \"#utility.yul\":3331:3335   */\n      dup2\n        /* \"#utility.yul\":3327:3347   */\n      sub\n        /* \"#utility.yul\":3323:3324   */\n      0x00\n        /* \"#utility.yul\":3312:3321   */\n      dup4\n        /* \"#utility.yul\":3308:3325   */\n      add\n        /* \"#utility.yul\":3301:3348   */\n      mstore\n        /* \"#utility.yul\":3365:3496   */\n      tag_111\n        /* \"#utility.yul\":3491:3495   */\n      dup2\n        /* \"#utility.yul\":3365:3496   */\n      tag_69\n      jump\t// in\n    tag_111:\n        /* \"#utility.yul\":3357:3496   */\n      swap1\n      pop\n        /* \"#utility.yul\":3084:3503   */\n      swap2\n      swap1\n      pop\n      jump\t// out\n        /* \"#utility.yul\":3509:3689   */\n    tag_70:\n        /* \"#utility.yul\":3557:3634   */\n      0x4e487b7100000000000000000000000000000000000000000000000000000000\n        /* \"#utility.yul\":3554:3555   */\n      0x00\n        /* \"#utility.yul\":3547:3635   */\n      mstore\n        /* \"#utility.yul\":3654:3658   */\n      0x11\n        /* \"#utility.yul\":3651:3652   */\n      0x04\n        /* \"#utility.yul\":3644:3659   */\n      mstore\n        /* \"#utility.yul\":3678:3682   */\n      0x24\n        /* \"#utility.yul\":3675:3676   */\n      0x00\n        /* \"#utility.yul\":3668:3683   */\n      revert\n        /* \"#utility.yul\":3695:3889   */\n    tag_32:\n        /* \"#utility.yul\":3735:3739   */\n      0x00\n        /* \"#utility.yul\":3755:3775   */\n      tag_114\n        /* \"#utility.yul\":3773:3774   */\n      dup3\n        /* \"#utility.yul\":3755:3775   */\n      tag_63\n      jump\t// in\n    tag_114:\n        /* \"#utility.yul\":3750:3775   */\n      swap2\n      pop\n        /* \"#utility.yul\":3789:3809   */\n      tag_115\n        /* \"#utility.yul\":3807:3808   */\n      dup4\n        /* \"#utility.yul\":3789:3809   */\n      tag_63\n      jump\t// in\n    tag_115:\n        /* \"#utility.yul\":3784:3809   */\n      swap3\n      pop\n        /* \"#utility.yul\":3833:3834   */\n      dup3\n        /* \"#utility.yul\":3830:3831   */\n      dup3\n        /* \"#utility.yul\":3826:3835   */\n      sub\n        /* \"#utility.yul\":3818:3835   */\n      swap1\n      pop\n        /* \"#utility.yul\":3857:3858   */\n      dup2\n        /* \"#utility.yul\":3851:3855   */\n      dup2\n        /* \"#utility.yul\":3848:3859   */\n      gt\n        /* \"#utility.yul\":3845:3882   */\n      iszero\n      tag_116\n      jumpi\n        /* \"#utility.yul\":3862:3880   */\n      tag_117\n      tag_70\n      jump\t// in\n    tag_117:\n        /* \"#utility.yul\":3845:3882   */\n    tag_116:\n        /* \"#utility.yul\":3695:3889   */\n      swap3\n      swap2\n      pop\n      pop\n      jump\t// out\n        /* \"#utility.yul\":3895:4086   */\n    tag_34:\n        /* \"#utility.yul\":3935:3938   */\n      0x00\n        /* \"#utility.yul\":3954:3974   */\n      tag_119\n        /* \"#utility.yul\":3972:3973   */\n      dup3\n        /* \"#utility.yul\":3954:3974   */\n      tag_63\n      jump\t// in\n    tag_119:\n        /* \"#utility.yul\":3949:3974   */\n      swap2\n      pop\n        /* \"#utility.yul\":3988:4008   */\n      tag_120\n        /* \"#utility.yul\":4006:4007   */\n      dup4\n        /* \"#utility.yul\":3988:4008   */\n      tag_63\n      jump\t// in\n    tag_120:\n        /* \"#utility.yul\":3983:4008   */\n      swap3\n      pop\n        /* \"#utility.yul\":4031:4032   */\n      dup3\n        /* \"#utility.yul\":4028:4029   */\n      dup3\n        /* \"#utility.yul\":4024:4033   */\n      add\n        /* \"#utility.yul\":4017:4033   */\n      swap1\n      pop\n        /* \"#utility.yul\":4052:4055   */\n      dup1\n        /* \"#utility.yul\":4049:4050   */\n      dup3\n        /* \"#utility.yul\":4046:4056   */\n      gt\n        /* \"#utility.yul\":4043:4079   */\n      iszero\n      tag_121\n      jumpi\n        /* \"#utility.yul\":4059:4077   */\n      tag_122\n      tag_70\n      jump\t// in\n    tag_122:\n        /* \"#utility.yul\":4043:4079   */\n    tag_121:\n        /* \"#utility.yul\":3895:4086   */\n      swap3\n      swap2\n      pop\n      pop\n      jump\t// out\n        /* \"#utility.yul\":4092:4261   */\n    tag_71:\n        /* \"#utility.yul\":4232:4253   */\n      0x596f7520617265206e6f7420616c6c6f77656400000000000000000000000000\n        /* \"#utility.yul\":4228:4229   */\n      0x00\n        /* \"#utility.yul\":4220:4226   */\n      dup3\n        /* \"#utility.yul\":4216:4230   */\n      add\n        /* \"#utility.yul\":4209:4254   */\n      mstore\n        /* \"#utility.yul\":4092:4261   */\n      pop\n      jump\t// out\n        /* \"#utility.yul\":4267:4633   */\n    tag_72:\n        /* \"#utility.yul\":4409:4412   */\n      0x00\n        /* \"#utility.yul\":4430:4497   */\n      tag_125\n        /* \"#utility.yul\":4494:4496   */\n      0x13\n        /* \"#utility.yul\":4489:4492   */\n      dup4\n        /* \"#utility.yul\":4430:4497   */\n      tag_67\n      jump\t// in\n    tag_125:\n        /* \"#utility.yul\":4423:4497   */\n      swap2\n      pop\n        /* \"#utility.yul\":4506:4599   */\n      tag_126\n        /* \"#utility.yul\":4595:4598   */\n      dup3\n        /* \"#utility.yul\":4506:4599   */\n      tag_71\n      jump\t// in\n    tag_126:\n        /* \"#utility.yul\":4624:4626   */\n      0x20\n        /* \"#utility.yul\":4619:4622   */\n      dup3\n        /* \"#utility.yul\":4615:4627   */\n      add\n        /* \"#utility.yul\":4608:4627   */\n      swap1\n      pop\n        /* \"#utility.yul\":4267:4633   */\n      swap2\n      swap1\n      pop\n      jump\t// out\n        /* \"#utility.yul\":4639:5058   */\n    tag_38:\n        /* \"#utility.yul\":4805:4809   */\n      0x00\n        /* \"#utility.yul\":4843:4845   */\n      0x20\n        /* \"#utility.yul\":4832:4841   */\n      dup3\n        /* \"#utility.yul\":4828:4846   */\n      add\n        /* \"#utility.yul\":4820:4846   */\n      swap1\n      pop\n        /* \"#utility.yul\":4892:4901   */\n      dup2\n        /* \"#utility.yul\":4886:4890   */\n      dup2\n        /* \"#utility.yul\":4882:4902   */\n      sub\n        /* \"#utility.yul\":4878:4879   */\n      0x00\n        /* \"#utility.yul\":4867:4876   */\n      dup4\n        /* \"#utility.yul\":4863:4880   */\n      add\n        /* \"#utility.yul\":4856:4903   */\n      mstore\n        /* \"#utility.yul\":4920:5051   */\n      tag_128\n        /* \"#utility.yul\":5046:5050   */\n      dup2\n        /* \"#utility.yul\":4920:5051   */\n      tag_72\n      jump\t// in\n    tag_128:\n        /* \"#utility.yul\":4912:5051   */\n      swap1\n      pop\n        /* \"#utility.yul\":4639:5058   */\n      swap2\n      swap1\n      pop\n      jump\t// out\n        /* \"#utility.yul\":5064:5297   */\n    tag_41:\n        /* \"#utility.yul\":5103:5106   */\n      0x00\n        /* \"#utility.yul\":5126:5150   */\n      tag_130\n        /* \"#utility.yul\":5144:5149   */\n      dup3\n        /* \"#utility.yul\":5126:5150   */\n      tag_63\n      jump\t// in\n    tag_130:\n        /* \"#utility.yul\":5117:5150   */\n      swap2\n      pop\n        /* \"#utility.yul\":5172:5238   */\n      0xffffffffffffffffffffffffffffffffffffffffffffffffffffffffffffffff\n        /* \"#utility.yul\":5165:5170   */\n      dup3\n        /* \"#utility.yul\":5162:5239   */\n      sub\n        /* \"#utility.yul\":5159:5262   */\n      tag_131\n      jumpi\n        /* \"#utility.yul\":5242:5260   */\n      tag_132\n      tag_70\n      jump\t// in\n    tag_132:\n        /* \"#utility.yul\":5159:5262   */\n    tag_131:\n        /* \"#utility.yul\":5289:5290   */\n      0x01\n        /* \"#utility.yul\":5282:5287   */\n      dup3\n        /* \"#utility.yul\":5278:5291   */\n      add\n        /* \"#utility.yul\":5271:5291   */\n      swap1\n      pop\n        /* \"#utility.yul\":5064:5297   */\n      swap2\n      swap1\n      pop\n      jump\t// out\n        /* \"#utility.yul\":5303:5651   */\n    tag_44:\n        /* \"#utility.yul\":5343:5350   */\n      0x00\n        /* \"#utility.yul\":5366:5386   */\n      tag_134\n        /* \"#utility.yul\":5384:5385   */\n      dup3\n        /* \"#utility.yul\":5366:5386   */\n      tag_63\n      jump\t// in\n    tag_134:\n        /* \"#utility.yul\":5361:5386   */\n      swap2\n      pop\n        /* \"#utility.yul\":5400:5420   */\n      tag_135\n        /* \"#utility.yul\":5418:5419   */\n      dup4\n        /* \"#utility.yul\":5400:5420   */\n      tag_63\n      jump\t// in\n    tag_135:\n        /* \"#utility.yul\":5395:5420   */\n      swap3\n      pop\n        /* \"#utility.yul\":5588:5589   */\n      dup2\n        /* \"#utility.yul\":5520:5586   */\n      0xffffffffffffffffffffffffffffffffffffffffffffffffffffffffffffffff\n        /* \"#utility.yul\":5516:5590   */\n      div\n        /* \"#utility.yul\":5513:5514   */\n      dup4\n        /* \"#utility.yul\":5510:5591   */\n      gt\n        /* \"#utility.yul\":5505:5506   */\n      dup3\n        /* \"#utility.yul\":5498:5507   */\n      iszero\n        /* \"#utility.yul\":5491:5508   */\n      iszero\n        /* \"#utility.yul\":5487:5592   */\n      and\n        /* \"#utility.yul\":5484:5615   */\n      iszero\n      tag_136\n      jumpi\n        /* \"#utility.yul\":5595:5613   */\n      tag_137\n      tag_70\n      jump\t// in\n    tag_137:\n        /* \"#utility.yul\":5484:5615   */\n    tag_136:\n        /* \"#utility.yul\":5643:5644   */\n      dup3\n        /* \"#utility.yul\":5640:5641   */\n      dup3\n        /* \"#utility.yul\":5636:5645   */\n      mul\n        /* \"#utility.yul\":5625:5645   */\n      swap1\n      pop\n        /* \"#utility.yul\":5303:5651   */\n      swap3\n      swap2\n      pop\n      pop\n      jump\t// out\n        /* \"#utility.yul\":5657:5837   */\n    tag_73:\n        /* \"#utility.yul\":5705:5782   */\n      0x4e487b7100000000000000000000000000000000000000000000000000000000\n        /* \"#utility.yul\":5702:5703   */\n      0x00\n        /* \"#utility.yul\":5695:5783   */\n      mstore\n        /* \"#utility.yul\":5802:5806   */\n      0x12\n        /* \"#utility.yul\":5799:5800   */\n      0x04\n        /* \"#utility.yul\":5792:5807   */\n      mstore\n        /* \"#utility.yul\":5826:5830   */\n      0x24\n        /* \"#utility.yul\":5823:5824   */\n      0x00\n        /* \"#utility.yul\":5816:5831   */\n      revert\n        /* \"#utility.yul\":5843:6028   */\n    tag_46:\n        /* \"#utility.yul\":5883:5884   */\n      0x00\n        /* \"#utility.yul\":5900:5920   */\n      tag_140\n        /* \"#utility.yul\":5918:5919   */\n      dup3\n        /* \"#utility.yul\":5900:5920   */\n      tag_63\n      jump\t// in\n    tag_140:\n        /* \"#utility.yul\":5895:5920   */\n      swap2\n      pop\n        /* \"#utility.yul\":5934:5954   */\n      tag_141\n        /* \"#utility.yul\":5952:5953   */\n      dup4\n        /* \"#utility.yul\":5934:5954   */\n      tag_63\n      jump\t// in\n    tag_141:\n        /* \"#utility.yul\":5929:5954   */\n      swap3\n      pop\n        /* \"#utility.yul\":5973:5974   */\n      dup3\n        /* \"#utility.yul\":5963:5998   */\n      tag_142\n      jumpi\n        /* \"#utility.yul\":5978:5996   */\n      tag_143\n      tag_73\n      jump\t// in\n    tag_143:\n        /* \"#utility.yul\":5963:5998   */\n    tag_142:\n        /* \"#utility.yul\":6020:6021   */\n      dup3\n        /* \"#utility.yul\":6017:6018   */\n      dup3\n        /* \"#utility.yul\":6013:6022   */\n      div\n        /* \"#utility.yul\":6008:6022   */\n      swap1\n      pop\n        /* \"#utility.yul\":5843:6028   */\n      swap3\n      swap2\n      pop\n      pop\n      jump\t// out\n        /* \"#utility.yul\":6034:6205   */\n    tag_55:\n        /* \"#utility.yul\":6073:6076   */\n      0x00\n        /* \"#utility.yul\":6096:6120   */\n      tag_145\n        /* \"#utility.yul\":6114:6119   */\n      dup3\n        /* \"#utility.yul\":6096:6120   */\n      tag_63\n      jump\t// in\n    tag_145:\n        /* \"#utility.yul\":6087:6120   */\n      swap2\n      pop\n        /* \"#utility.yul\":6142:6146   */\n      0x00\n        /* \"#utility.yul\":6135:6140   */\n      dup3\n        /* \"#utility.yul\":6132:6147   */\n      sub\n        /* \"#utility.yul\":6129:6170   */\n      tag_146\n      jumpi\n        /* \"#utility.yul\":6150:6168   */\n      tag_147\n      tag_70\n      jump\t// in\n    tag_147:\n        /* \"#utility.yul\":6129:6170   */\n    tag_146:\n        /* \"#utility.yul\":6197:6198   */\n      0x01\n        /* \"#utility.yul\":6190:6195   */\n      dup3\n        /* \"#utility.yul\":6186:6199   */\n      sub\n        /* \"#utility.yul\":6179:6199   */\n      swap1\n      pop\n        /* \"#utility.yul\":6034:6205   */\n      swap2\n      swap1\n      pop\n      jump\t// out\n\n    auxdata: 0xa2646970667358221220d0fc78853b26ad1fd076512634d0985de7866313e6c051454b9b8ae3f4c18ccb64736f6c63430008100033\n}\n",
				"bytecode": {
					"linkReferences": {},
					"object": "6080604052670de0b6b3a764000060025534801561001c57600080fd5b50336000806101000a81548173ffffffffffffffffffffffffffffffffffffffff021916908373ffffffffffffffffffffffffffffffffffffffff1602179055506064600160003373ffffffffffffffffffffffffffffffffffffffff1673ffffffffffffffffffffffffffffffffffffffff1681526020019081526020016000208190555061096a806100b16000396000f3fe60806040526004361061004a5760003560e01c8063412664ae1461004f578063754fc38c14610078578063a95c4d621461008f578063eedc966a14610099578063faa0a264146100d6575b600080fd5b34801561005b57600080fd5b50610076600480360381019061007191906105f2565b6100ed565b005b34801561008457600080fd5b5061008d61021f565b005b610097610325565b005b3480156100a557600080fd5b506100c060048036038101906100bb9190610632565b6104c9565b6040516100cd919061066e565b60405180910390f35b3480156100e257600080fd5b506100eb6104e1565b005b80600160003373ffffffffffffffffffffffffffffffffffffffff1673ffffffffffffffffffffffffffffffffffffffff16815260200190815260200160002054101561016f576040517f08c379a0000000000000000000000000000000000000000000000000000000008152600401610166906106e6565b60405180910390fd5b80600160003373ffffffffffffffffffffffffffffffffffffffff1673ffffffffffffffffffffffffffffffffffffffff16815260200190815260200160002060008282546101be9190610735565b9250508190555080600160008473ffffffffffffffffffffffffffffffffffffffff1673ffffffffffffffffffffffffffffffffffffffff16815260200190815260200160002060008282546102149190610769565b925050819055505050565b60008054906101000a900473ffffffffffffffffffffffffffffffffffffffff1673ffffffffffffffffffffffffffffffffffffffff163373ffffffffffffffffffffffffffffffffffffffff16146102ad576040517f08c379a00000000000000000000000000000000000000000000000000000000081526004016102a4906107e9565b60405180910390fd5b600160008060009054906101000a900473ffffffffffffffffffffffffffffffffffffffff1673ffffffffffffffffffffffffffffffffffffffff1673ffffffffffffffffffffffffffffffffffffffff168152602001908152602001600020600081548092919061031e90610809565b9190505550565b600034600254600160008060009054906101000a900473ffffffffffffffffffffffffffffffffffffffff1673ffffffffffffffffffffffffffffffffffffffff1673ffffffffffffffffffffffffffffffffffffffff168152602001908152602001600020546103969190610851565b6103a091906108da565b116103e0576040517f08c379a00000000000000000000000000000000000000000000000000000000081526004016103d7906106e6565b60405180910390fd5b600254346103ee91906108da565b600160008060009054906101000a900473ffffffffffffffffffffffffffffffffffffffff1673ffffffffffffffffffffffffffffffffffffffff1673ffffffffffffffffffffffffffffffffffffffff168152602001908152602001600020600082825461045d9190610735565b925050819055506002543461047291906108da565b600160003373ffffffffffffffffffffffffffffffffffffffff1673ffffffffffffffffffffffffffffffffffffffff16815260200190815260200160002060008282546104c09190610769565b92505081905550565b60016020528060005260406000206000915090505481565b600160008060009054906101000a900473ffffffffffffffffffffffffffffffffffffffff1673ffffffffffffffffffffffffffffffffffffffff1673ffffffffffffffffffffffffffffffffffffffff16815260200190815260200160002060008154809291906105529061090b565b9190505550565b600080fd5b600073ffffffffffffffffffffffffffffffffffffffff82169050919050565b60006105898261055e565b9050919050565b6105998161057e565b81146105a457600080fd5b50565b6000813590506105b681610590565b92915050565b6000819050919050565b6105cf816105bc565b81146105da57600080fd5b50565b6000813590506105ec816105c6565b92915050565b6000806040838503121561060957610608610559565b5b6000610617858286016105a7565b9250506020610628858286016105dd565b9150509250929050565b60006020828403121561064857610647610559565b5b6000610656848285016105a7565b91505092915050565b610668816105bc565b82525050565b6000602082019050610683600083018461065f565b92915050565b600082825260208201905092915050565b7f4e6f7420656e6f75676820746f6b656e73000000000000000000000000000000600082015250565b60006106d0601183610689565b91506106db8261069a565b602082019050919050565b600060208201905081810360008301526106ff816106c3565b9050919050565b7f4e487b7100000000000000000000000000000000000000000000000000000000600052601160045260246000fd5b6000610740826105bc565b915061074b836105bc565b925082820390508181111561076357610762610706565b5b92915050565b6000610774826105bc565b915061077f836105bc565b925082820190508082111561079757610796610706565b5b92915050565b7f596f7520617265206e6f7420616c6c6f77656400000000000000000000000000600082015250565b60006107d3601383610689565b91506107de8261079d565b602082019050919050565b60006020820190508181036000830152610802816107c6565b9050919050565b6000610814826105bc565b91507fffffffffffffffffffffffffffffffffffffffffffffffffffffffffffffffff820361084657610845610706565b5b600182019050919050565b600061085c826105bc565b9150610867836105bc565b9250817fffffffffffffffffffffffffffffffffffffffffffffffffffffffffffffffff04831182151516156108a05761089f610706565b5b828202905092915050565b7f4e487b7100000000000000000000000000000000000000000000000000000000600052601260045260246000fd5b60006108e5826105bc565b91506108f0836105bc565b925082610900576108ff6108ab565b5b828204905092915050565b6000610916826105bc565b91506000820361092957610928610706565b5b60018203905091905056fea2646970667358221220d0fc78853b26ad1fd076512634d0985de7866313e6c051454b9b8ae3f4c18ccb64736f6c63430008100033",
					"opcodes": "PUSH1 0x80 PUSH1 0x40 MSTORE PUSH8 0xDE0B6B3A7640000 PUSH1 0x2 SSTORE CALLVALUE DUP1 ISZERO PUSH2 0x1C JUMPI PUSH1 0x0 DUP1 REVERT JUMPDEST POP CALLER PUSH1 0x0 DUP1 PUSH2 0x100 EXP DUP2 SLOAD DUP2 PUSH20 0xFFFFFFFFFFFFFFFFFFFFFFFFFFFFFFFFFFFFFFFF MUL NOT AND SWAP1 DUP4 PUSH20 0xFFFFFFFFFFFFFFFFFFFFFFFFFFFFFFFFFFFFFFFF AND MUL OR SWAP1 SSTORE POP PUSH1 0x64 PUSH1 0x1 PUSH1 0x0 CALLER PUSH20 0xFFFFFFFFFFFFFFFFFFFFFFFFFFFFFFFFFFFFFFFF AND PUSH20 0xFFFFFFFFFFFFFFFFFFFFFFFFFFFFFFFFFFFFFFFF AND DUP2 MSTORE PUSH1 0x20 ADD SWAP1 DUP2 MSTORE PUSH1 0x20 ADD PUSH1 0x0 KECCAK256 DUP2 SWAP1 SSTORE POP PUSH2 0x96A DUP1 PUSH2 0xB1 PUSH1 0x0 CODECOPY PUSH1 0x0 RETURN INVALID PUSH1 0x80 PUSH1 0x40 MSTORE PUSH1 0x4 CALLDATASIZE LT PUSH2 0x4A JUMPI PUSH1 0x0 CALLDATALOAD PUSH1 0xE0 SHR DUP1 PUSH4 0x412664AE EQ PUSH2 0x4F JUMPI DUP1 PUSH4 0x754FC38C EQ PUSH2 0x78 JUMPI DUP1 PUSH4 0xA95C4D62 EQ PUSH2 0x8F JUMPI DUP1 PUSH4 0xEEDC966A EQ PUSH2 0x99 JUMPI DUP1 PUSH4 0xFAA0A264 EQ PUSH2 0xD6 JUMPI JUMPDEST PUSH1 0x0 DUP1 REVERT JUMPDEST CALLVALUE DUP1 ISZERO PUSH2 0x5B JUMPI PUSH1 0x0 DUP1 REVERT JUMPDEST POP PUSH2 0x76 PUSH1 0x4 DUP1 CALLDATASIZE SUB DUP2 ADD SWAP1 PUSH2 0x71 SWAP2 SWAP1 PUSH2 0x5F2 JUMP JUMPDEST PUSH2 0xED JUMP JUMPDEST STOP JUMPDEST CALLVALUE DUP1 ISZERO PUSH2 0x84 JUMPI PUSH1 0x0 DUP1 REVERT JUMPDEST POP PUSH2 0x8D PUSH2 0x21F JUMP JUMPDEST STOP JUMPDEST PUSH2 0x97 PUSH2 0x325 JUMP JUMPDEST STOP JUMPDEST CALLVALUE DUP1 ISZERO PUSH2 0xA5 JUMPI PUSH1 0x0 DUP1 REVERT JUMPDEST POP PUSH2 0xC0 PUSH1 0x4 DUP1 CALLDATASIZE SUB DUP2 ADD SWAP1 PUSH2 0xBB SWAP2 SWAP1 PUSH2 0x632 JUMP JUMPDEST PUSH2 0x4C9 JUMP JUMPDEST PUSH1 0x40 MLOAD PUSH2 0xCD SWAP2 SWAP1 PUSH2 0x66E JUMP JUMPDEST PUSH1 0x40 MLOAD DUP1 SWAP2 SUB SWAP1 RETURN JUMPDEST CALLVALUE DUP1 ISZERO PUSH2 0xE2 JUMPI PUSH1 0x0 DUP1 REVERT JUMPDEST POP PUSH2 0xEB PUSH2 0x4E1 JUMP JUMPDEST STOP JUMPDEST DUP1 PUSH1 0x1 PUSH1 0x0 CALLER PUSH20 0xFFFFFFFFFFFFFFFFFFFFFFFFFFFFFFFFFFFFFFFF AND PUSH20 0xFFFFFFFFFFFFFFFFFFFFFFFFFFFFFFFFFFFFFFFF AND DUP2 MSTORE PUSH1 0x20 ADD SWAP1 DUP2 MSTORE PUSH1 0x20 ADD PUSH1 0x0 KECCAK256 SLOAD LT ISZERO PUSH2 0x16F JUMPI PUSH1 0x40 MLOAD PUSH32 0x8C379A000000000000000000000000000000000000000000000000000000000 DUP2 MSTORE PUSH1 0x4 ADD PUSH2 0x166 SWAP1 PUSH2 0x6E6 JUMP JUMPDEST PUSH1 0x40 MLOAD DUP1 SWAP2 SUB SWAP1 REVERT JUMPDEST DUP1 PUSH1 0x1 PUSH1 0x0 CALLER PUSH20 0xFFFFFFFFFFFFFFFFFFFFFFFFFFFFFFFFFFFFFFFF AND PUSH20 0xFFFFFFFFFFFFFFFFFFFFFFFFFFFFFFFFFFFFFFFF AND DUP2 MSTORE PUSH1 0x20 ADD SWAP1 DUP2 MSTORE PUSH1 0x20 ADD PUSH1 0x0 KECCAK256 PUSH1 0x0 DUP3 DUP3 SLOAD PUSH2 0x1BE SWAP2 SWAP1 PUSH2 0x735 JUMP JUMPDEST SWAP3 POP POP DUP2 SWAP1 SSTORE POP DUP1 PUSH1 0x1 PUSH1 0x0 DUP5 PUSH20 0xFFFFFFFFFFFFFFFFFFFFFFFFFFFFFFFFFFFFFFFF AND PUSH20 0xFFFFFFFFFFFFFFFFFFFFFFFFFFFFFFFFFFFFFFFF AND DUP2 MSTORE PUSH1 0x20 ADD SWAP1 DUP2 MSTORE PUSH1 0x20 ADD PUSH1 0x0 KECCAK256 PUSH1 0x0 DUP3 DUP3 SLOAD PUSH2 0x214 SWAP2 SWAP1 PUSH2 0x769 JUMP JUMPDEST SWAP3 POP POP DUP2 SWAP1 SSTORE POP POP POP JUMP JUMPDEST PUSH1 0x0 DUP1 SLOAD SWAP1 PUSH2 0x100 EXP SWAP1 DIV PUSH20 0xFFFFFFFFFFFFFFFFFFFFFFFFFFFFFFFFFFFFFFFF AND PUSH20 0xFFFFFFFFFFFFFFFFFFFFFFFFFFFFFFFFFFFFFFFF AND CALLER PUSH20 0xFFFFFFFFFFFFFFFFFFFFFFFFFFFFFFFFFFFFFFFF AND EQ PUSH2 0x2AD JUMPI PUSH1 0x40 MLOAD PUSH32 0x8C379A000000000000000000000000000000000000000000000000000000000 DUP2 MSTORE PUSH1 0x4 ADD PUSH2 0x2A4 SWAP1 PUSH2 0x7E9 JUMP JUMPDEST PUSH1 0x40 MLOAD DUP1 SWAP2 SUB SWAP1 REVERT JUMPDEST PUSH1 0x1 PUSH1 0x0 DUP1 PUSH1 0x0 SWAP1 SLOAD SWAP1 PUSH2 0x100 EXP SWAP1 DIV PUSH20 0xFFFFFFFFFFFFFFFFFFFFFFFFFFFFFFFFFFFFFFFF AND PUSH20 0xFFFFFFFFFFFFFFFFFFFFFFFFFFFFFFFFFFFFFFFF AND PUSH20 0xFFFFFFFFFFFFFFFFFFFFFFFFFFFFFFFFFFFFFFFF AND DUP2 MSTORE PUSH1 0x20 ADD SWAP1 DUP2 MSTORE PUSH1 0x20 ADD PUSH1 0x0 KECCAK256 PUSH1 0x0 DUP2 SLOAD DUP1 SWAP3 SWAP2 SWAP1 PUSH2 0x31E SWAP1 PUSH2 0x809 JUMP JUMPDEST SWAP2 SWAP1 POP SSTORE POP JUMP JUMPDEST PUSH1 0x0 CALLVALUE PUSH1 0x2 SLOAD PUSH1 0x1 PUSH1 0x0 DUP1 PUSH1 0x0 SWAP1 SLOAD SWAP1 PUSH2 0x100 EXP SWAP1 DIV PUSH20 0xFFFFFFFFFFFFFFFFFFFFFFFFFFFFFFFFFFFFFFFF AND PUSH20 0xFFFFFFFFFFFFFFFFFFFFFFFFFFFFFFFFFFFFFFFF AND PUSH20 0xFFFFFFFFFFFFFFFFFFFFFFFFFFFFFFFFFFFFFFFF AND DUP2 MSTORE PUSH1 0x20 ADD SWAP1 DUP2 MSTORE PUSH1 0x20 ADD PUSH1 0x0 KECCAK256 SLOAD PUSH2 0x396 SWAP2 SWAP1 PUSH2 0x851 JUMP JUMPDEST PUSH2 0x3A0 SWAP2 SWAP1 PUSH2 0x8DA JUMP JUMPDEST GT PUSH2 0x3E0 JUMPI PUSH1 0x40 MLOAD PUSH32 0x8C379A000000000000000000000000000000000000000000000000000000000 DUP2 MSTORE PUSH1 0x4 ADD PUSH2 0x3D7 SWAP1 PUSH2 0x6E6 JUMP JUMPDEST PUSH1 0x40 MLOAD DUP1 SWAP2 SUB SWAP1 REVERT JUMPDEST PUSH1 0x2 SLOAD CALLVALUE PUSH2 0x3EE SWAP2 SWAP1 PUSH2 0x8DA JUMP JUMPDEST PUSH1 0x1 PUSH1 0x0 DUP1 PUSH1 0x0 SWAP1 SLOAD SWAP1 PUSH2 0x100 EXP SWAP1 DIV PUSH20 0xFFFFFFFFFFFFFFFFFFFFFFFFFFFFFFFFFFFFFFFF AND PUSH20 0xFFFFFFFFFFFFFFFFFFFFFFFFFFFFFFFFFFFFFFFF AND PUSH20 0xFFFFFFFFFFFFFFFFFFFFFFFFFFFFFFFFFFFFFFFF AND DUP2 MSTORE PUSH1 0x20 ADD SWAP1 DUP2 MSTORE PUSH1 0x20 ADD PUSH1 0x0 KECCAK256 PUSH1 0x0 DUP3 DUP3 SLOAD PUSH2 0x45D SWAP2 SWAP1 PUSH2 0x735 JUMP JUMPDEST SWAP3 POP POP DUP2 SWAP1 SSTORE POP PUSH1 0x2 SLOAD CALLVALUE PUSH2 0x472 SWAP2 SWAP1 PUSH2 0x8DA JUMP JUMPDEST PUSH1 0x1 PUSH1 0x0 CALLER PUSH20 0xFFFFFFFFFFFFFFFFFFFFFFFFFFFFFFFFFFFFFFFF AND PUSH20 0xFFFFFFFFFFFFFFFFFFFFFFFFFFFFFFFFFFFFFFFF AND DUP2 MSTORE PUSH1 0x20 ADD SWAP1 DUP2 MSTORE PUSH1 0x20 ADD PUSH1 0x0 KECCAK256 PUSH1 0x0 DUP3 DUP3 SLOAD PUSH2 0x4C0 SWAP2 SWAP1 PUSH2 0x769 JUMP JUMPDEST SWAP3 POP POP DUP2 SWAP1 SSTORE POP JUMP JUMPDEST PUSH1 0x1 PUSH1 0x20 MSTORE DUP1 PUSH1 0x0 MSTORE PUSH1 0x40 PUSH1 0x0 KECCAK256 PUSH1 0x0 SWAP2 POP SWAP1 POP SLOAD DUP2 JUMP JUMPDEST PUSH1 0x1 PUSH1 0x0 DUP1 PUSH1 0x0 SWAP1 SLOAD SWAP1 PUSH2 0x100 EXP SWAP1 DIV PUSH20 0xFFFFFFFFFFFFFFFFFFFFFFFFFFFFFFFFFFFFFFFF AND PUSH20 0xFFFFFFFFFFFFFFFFFFFFFFFFFFFFFFFFFFFFFFFF AND PUSH20 0xFFFFFFFFFFFFFFFFFFFFFFFFFFFFFFFFFFFFFFFF AND DUP2 MSTORE PUSH1 0x20 ADD SWAP1 DUP2 MSTORE PUSH1 0x20 ADD PUSH1 0x0 KECCAK256 PUSH1 0x0 DUP2 SLOAD DUP1 SWAP3 SWAP2 SWAP1 PUSH2 0x552 SWAP1 PUSH2 0x90B JUMP JUMPDEST SWAP2 SWAP1 POP SSTORE POP JUMP JUMPDEST PUSH1 0x0 DUP1 REVERT JUMPDEST PUSH1 0x0 PUSH20 0xFFFFFFFFFFFFFFFFFFFFFFFFFFFFFFFFFFFFFFFF DUP3 AND SWAP1 POP SWAP2 SWAP1 POP JUMP JUMPDEST PUSH1 0x0 PUSH2 0x589 DUP3 PUSH2 0x55E JUMP JUMPDEST SWAP1 POP SWAP2 SWAP1 POP JUMP JUMPDEST PUSH2 0x599 DUP2 PUSH2 0x57E JUMP JUMPDEST DUP2 EQ PUSH2 0x5A4 JUMPI PUSH1 0x0 DUP1 REVERT JUMPDEST POP JUMP JUMPDEST PUSH1 0x0 DUP2 CALLDATALOAD SWAP1 POP PUSH2 0x5B6 DUP2 PUSH2 0x590 JUMP JUMPDEST SWAP3 SWAP2 POP POP JUMP JUMPDEST PUSH1 0x0 DUP2 SWAP1 POP SWAP2 SWAP1 POP JUMP JUMPDEST PUSH2 0x5CF DUP2 PUSH2 0x5BC JUMP JUMPDEST DUP2 EQ PUSH2 0x5DA JUMPI PUSH1 0x0 DUP1 REVERT JUMPDEST POP JUMP JUMPDEST PUSH1 0x0 DUP2 CALLDATALOAD SWAP1 POP PUSH2 0x5EC DUP2 PUSH2 0x5C6 JUMP JUMPDEST SWAP3 SWAP2 POP POP JUMP JUMPDEST PUSH1 0x0 DUP1 PUSH1 0x40 DUP4 DUP6 SUB SLT ISZERO PUSH2 0x609 JUMPI PUSH2 0x608 PUSH2 0x559 JUMP JUMPDEST JUMPDEST PUSH1 0x0 PUSH2 0x617 DUP6 DUP3 DUP7 ADD PUSH2 0x5A7 JUMP JUMPDEST SWAP3 POP POP PUSH1 0x20 PUSH2 0x628 DUP6 DUP3 DUP7 ADD PUSH2 0x5DD JUMP JUMPDEST SWAP2 POP POP SWAP3 POP SWAP3 SWAP1 POP JUMP JUMPDEST PUSH1 0x0 PUSH1 0x20 DUP3 DUP5 SUB SLT ISZERO PUSH2 0x648 JUMPI PUSH2 0x647 PUSH2 0x559 JUMP JUMPDEST JUMPDEST PUSH1 0x0 PUSH2 0x656 DUP5 DUP3 DUP6 ADD PUSH2 0x5A7 JUMP JUMPDEST SWAP2 POP POP SWAP3 SWAP2 POP POP JUMP JUMPDEST PUSH2 0x668 DUP2 PUSH2 0x5BC JUMP JUMPDEST DUP3 MSTORE POP POP JUMP JUMPDEST PUSH1 0x0 PUSH1 0x20 DUP3 ADD SWAP1 POP PUSH2 0x683 PUSH1 0x0 DUP4 ADD DUP5 PUSH2 0x65F JUMP JUMPDEST SWAP3 SWAP2 POP POP JUMP JUMPDEST PUSH1 0x0 DUP3 DUP3 MSTORE PUSH1 0x20 DUP3 ADD SWAP1 POP SWAP3 SWAP2 POP POP JUMP JUMPDEST PUSH32 0x4E6F7420656E6F75676820746F6B656E73000000000000000000000000000000 PUSH1 0x0 DUP3 ADD MSTORE POP JUMP JUMPDEST PUSH1 0x0 PUSH2 0x6D0 PUSH1 0x11 DUP4 PUSH2 0x689 JUMP JUMPDEST SWAP2 POP PUSH2 0x6DB DUP3 PUSH2 0x69A JUMP JUMPDEST PUSH1 0x20 DUP3 ADD SWAP1 POP SWAP2 SWAP1 POP JUMP JUMPDEST PUSH1 0x0 PUSH1 0x20 DUP3 ADD SWAP1 POP DUP2 DUP2 SUB PUSH1 0x0 DUP4 ADD MSTORE PUSH2 0x6FF DUP2 PUSH2 0x6C3 JUMP JUMPDEST SWAP1 POP SWAP2 SWAP1 POP JUMP JUMPDEST PUSH32 0x4E487B7100000000000000000000000000000000000000000000000000000000 PUSH1 0x0 MSTORE PUSH1 0x11 PUSH1 0x4 MSTORE PUSH1 0x24 PUSH1 0x0 REVERT JUMPDEST PUSH1 0x0 PUSH2 0x740 DUP3 PUSH2 0x5BC JUMP JUMPDEST SWAP2 POP PUSH2 0x74B DUP4 PUSH2 0x5BC JUMP JUMPDEST SWAP3 POP DUP3 DUP3 SUB SWAP1 POP DUP2 DUP2 GT ISZERO PUSH2 0x763 JUMPI PUSH2 0x762 PUSH2 0x706 JUMP JUMPDEST JUMPDEST SWAP3 SWAP2 POP POP JUMP JUMPDEST PUSH1 0x0 PUSH2 0x774 DUP3 PUSH2 0x5BC JUMP JUMPDEST SWAP2 POP PUSH2 0x77F DUP4 PUSH2 0x5BC JUMP JUMPDEST SWAP3 POP DUP3 DUP3 ADD SWAP1 POP DUP1 DUP3 GT ISZERO PUSH2 0x797 JUMPI PUSH2 0x796 PUSH2 0x706 JUMP JUMPDEST JUMPDEST SWAP3 SWAP2 POP POP JUMP JUMPDEST PUSH32 0x596F7520617265206E6F7420616C6C6F77656400000000000000000000000000 PUSH1 0x0 DUP3 ADD MSTORE POP JUMP JUMPDEST PUSH1 0x0 PUSH2 0x7D3 PUSH1 0x13 DUP4 PUSH2 0x689 JUMP JUMPDEST SWAP2 POP PUSH2 0x7DE DUP3 PUSH2 0x79D JUMP JUMPDEST PUSH1 0x20 DUP3 ADD SWAP1 POP SWAP2 SWAP1 POP JUMP JUMPDEST PUSH1 0x0 PUSH1 0x20 DUP3 ADD SWAP1 POP DUP2 DUP2 SUB PUSH1 0x0 DUP4 ADD MSTORE PUSH2 0x802 DUP2 PUSH2 0x7C6 JUMP JUMPDEST SWAP1 POP SWAP2 SWAP1 POP JUMP JUMPDEST PUSH1 0x0 PUSH2 0x814 DUP3 PUSH2 0x5BC JUMP JUMPDEST SWAP2 POP PUSH32 0xFFFFFFFFFFFFFFFFFFFFFFFFFFFFFFFFFFFFFFFFFFFFFFFFFFFFFFFFFFFFFFFF DUP3 SUB PUSH2 0x846 JUMPI PUSH2 0x845 PUSH2 0x706 JUMP JUMPDEST JUMPDEST PUSH1 0x1 DUP3 ADD SWAP1 POP SWAP2 SWAP1 POP JUMP JUMPDEST PUSH1 0x0 PUSH2 0x85C DUP3 PUSH2 0x5BC JUMP JUMPDEST SWAP2 POP PUSH2 0x867 DUP4 PUSH2 0x5BC JUMP JUMPDEST SWAP3 POP DUP2 PUSH32 0xFFFFFFFFFFFFFFFFFFFFFFFFFFFFFFFFFFFFFFFFFFFFFFFFFFFFFFFFFFFFFFFF DIV DUP4 GT DUP3 ISZERO ISZERO AND ISZERO PUSH2 0x8A0 JUMPI PUSH2 0x89F PUSH2 0x706 JUMP JUMPDEST JUMPDEST DUP3 DUP3 MUL SWAP1 POP SWAP3 SWAP2 POP POP JUMP JUMPDEST PUSH32 0x4E487B7100000000000000000000000000000000000000000000000000000000 PUSH1 0x0 MSTORE PUSH1 0x12 PUSH1 0x4 MSTORE PUSH1 0x24 PUSH1 0x0 REVERT JUMPDEST PUSH1 0x0 PUSH2 0x8E5 DUP3 PUSH2 0x5BC JUMP JUMPDEST SWAP2 POP PUSH2 0x8F0 DUP4 PUSH2 0x5BC JUMP JUMPDEST SWAP3 POP DUP3 PUSH2 0x900 JUMPI PUSH2 0x8FF PUSH2 0x8AB JUMP JUMPDEST JUMPDEST DUP3 DUP3 DIV SWAP1 POP SWAP3 SWAP2 POP POP JUMP JUMPDEST PUSH1 0x0 PUSH2 0x916 DUP3 PUSH2 0x5BC JUMP JUMPDEST SWAP2 POP PUSH1 0x0 DUP3 SUB PUSH2 0x929 JUMPI PUSH2 0x928 PUSH2 0x706 JUMP JUMPDEST JUMPDEST PUSH1 0x1 DUP3 SUB SWAP1 POP SWAP2 SWAP1 POP JUMP INVALID LOG2 PUSH5 0x6970667358 0x22 SLT KECCAK256 0xD0 0xFC PUSH25 0x853B26AD1FD076512634D0985DE7866313E6C051454B9B8AE3 DELEGATECALL 0xC1 DUP13 0xCB PUSH5 0x736F6C6343 STOP ADDMOD LT STOP CALLER "
				},
				"gasEstimates": {
					"creation": {
						"codeDepositCost": "482000",
						"executionCost": "69093",
						"totalCost": "551093"
					},
					"external": {
						"burnToken()": "26793",
						"createNewToken()": "28894",
						"purchaseToken()": "infinite",
						"sendToken(address,uint256)": "infinite",
						"tokenBalance(address)": "2858"
					}
				},
				"methodIdentifiers": {
					"burnToken()": "faa0a264",
					"createNewToken()": "754fc38c",
					"purchaseToken()": "a95c4d62",
					"sendToken(address,uint256)": "412664ae",
					"tokenBalance(address)": "eedc966a"
				}
			},
			"storageLayout": {
				"storage": [
					{
						"astId": 116,
						"contract": "contracts/ExampleModifiers.sol:InheritanceModifierExample",
						"label": "owner",
						"offset": 0,
						"slot": "0",
						"type": "t_address"
					},
					{
						"astId": 8,
						"contract": "contracts/ExampleModifiers.sol:InheritanceModifierExample",
						"label": "tokenBalance",
						"offset": 0,
						"slot": "1",
						"type": "t_mapping(t_address,t_uint256)"
					},
					{
						"astId": 11,
						"contract": "contracts/ExampleModifiers.sol:InheritanceModifierExample",
						"label": "tokenPrice",
						"offset": 0,
						"slot": "2",
						"type": "t_uint256"
					}
				],
				"types": {
					"t_address": {
						"encoding": "inplace",
						"label": "address",
						"numberOfBytes": "20"
					},
					"t_mapping(t_address,t_uint256)": {
						"encoding": "mapping",
						"key": "t_address",
						"label": "mapping(address => uint256)",
						"numberOfBytes": "32",
						"value": "t_uint256"
					},
					"t_uint256": {
						"encoding": "inplace",
						"label": "uint256",
						"numberOfBytes": "32"
					}
				}
			},
			"userdoc": {
				"kind": "user",
				"methods": {},
				"version": 1
			}
		}
	}
}